:03000000020FCF1D
:0C0FCF00787FE4F6D8FD7581380210161A
:1016F3007D64E4FF1215587D327F011215587D3247
:051703007F02021558F1
:1015A700D2007F9A7E021200267B117D017F0212F4
:1015B7000EB41217891216DD1216121216F37D01D8
:0515C7007F0202149EEA
:101708001215A7E4FF1217307F011211AC7F0212E5
:04171800125680EFF6
:020EB400A90390
:100EB600E4FEFCEFD3943F4003020F41E994035054
:100EC6007AE930E003EE4DFEE930E403EC4DFCEF49
:100ED60030E00EEDF4FB5294EE4294EB5293EC426A
:100EE60093EF30E10EEDF4FB5292EE4292EB52910B
:100EF600EC4291EF30E20EEDF4FB5296EE4296EBA9
:100F06005295EC4295EF30E30EEDF4FB52B2EE4211
:100F1600B2EB52B1EC42B1EF30E40EEDF4FB52B459
:100F2600EE42B4EB52B3EC42B3EF30E50EEDF4FF14
:0B0F360052CAEE42CAEF52C9EC42C999
:010F4100228D
:10149E00EFD3943F502AEF30E003ED4280EF30E17E
:1014AE0003ED4290EF30E203ED42A0EF30E303EDA7
:1014BE0042B0EF30E403ED42C0EF30E503ED42C839
:0114CE0022FB
:10143100EFD3943F5030EF30E004EDF45280EF30C1
:10144100E104EDF45290EF30E204EDF452A0EF30FC
:10145100E304EDF452B0EF30E404EDF452C0EF30A8
:07146100E504EDF452C8227E
:1012F300E4F9EFD3943F503EEF24FE601A24FE60DE
:101303001C24FC601E24F8602024F06022241F703B
:1013130022E5804DF9801CE5904DF98016E5A04D3E
:10132300F98010E5B04DF9800AE5C04DF98004E578
:06133300C84DF9E924FF9A
:011339002291
:10171C00EFB401068D8AECF58C22EFB402058D8BAB
:04172C00ECF58D2229
:10150000AE07EE30E0125389F1438901538E7F7D9F
:10151000037CEE7F0112171CEE30E11253891F434A
:0F1520008910538EBF7D677CFC7F0212171C223F
:10158100EF30E00FEDB401054388108006ED7003E4
:101591005388EFEF30E10EEDB4010443884022EDB2
:0615A10070035388BF2215
:0C1789007F031215007D017F0102158115
:1002FE0000C1814001C0804101C0804100C18140E8
:10030E0001C0804100C1814000C1814001C08041D7
:10031E0001C0804100C1814000C1814001C08041C7
:10032E0000C1814001C0804101C0804100C18140B7
:10033E0001C0804100C1814000C1814001C08041A7
:10034E0000C1814001C0804101C0804100C1814097
:10035E0000C1814001C0804101C0804100C1814087
:10036E0001C0804100C1814000C1814001C0804177
:10037E0001C0804100C1814000C1814001C0804167
:10038E0000C1814001C0804101C0804100C1814057
:10039E0000C1814001C0804101C0804100C1814047
:1003AE0001C0804100C1814000C1814001C0804137
:1003BE0000C1814001C0804101C0804100C1814027
:1003CE0001C0804100C1814000C1814001C0804117
:1003DE0001C0804100C1814000C1814001C0804107
:1003EE0000C1814001C0804101C0804100C18140F7
:1003FE0000C0C101C30302C2C60607C705C5C404B7
:10040E00CC0C0DCD0FCFCE0E0ACACB0BC90908C826
:10041E00D81819D91BDBDA1A1EDEDF1FDD1D1CDC16
:10042E0014D4D515D71716D6D21213D311D1D01086
:10043E00F03031F133F3F23236F6F737F53534F476
:10044E003CFCFD3DFF3F3EFEFA3A3BFB39F9F838E6
:10045E0028E8E929EB2B2AEAEE2E2FEF2DEDEC2CD6
:10046E00E42425E527E7E62622E2E323E12120E046
:10047E00A06061A163A3A26266A6A767A56564A436
:10048E006CACAD6DAF6F6EAEAA6A6BAB69A9A868A6
:10049E0078B8B979BB7B7ABABE7E7FBF7DBDBC7C96
:1004AE00B47475B577B7B67672B2B373B17170B006
:1004BE0050909151935352929656579755959454F6
:1004CE009C5C5D9D5F9F9E5E5A9A9B5B9959589866
:1004DE00884849894B8B8A4A4E8E8F4F8D4D4C8C56
:1004EE0044848545874746868242438341818040C6
:0915CC0042030000004102EC00A2
:10105B0090030CEBF0A3EAF0A3E9F0A3ECF0A3ED03
:01106B00F094
:10106C00A3E4F0A374FFF0FD90030F74FFF5F012EE
:10107C00087145F0604390030CE0FBA3E475F001AC
:10108C00120871A9F0FA1207C46DFF7E0024FEF558
:10109C0082EE3402F583E493FD900311A3E0FCEDA2
:1010AC006CFD74FE2FF582EE3403F583E493FB9014
:1010BC000311E4F0A3EBF080AF900312E0FEEDFF20
:0110CC002201
:1016AF00EF75F003A424EDF9740235F0FA7B019085
:0616BF0000021207DDFF2E
:0116C5002202
:10152F00EF75F003A424EDF9740235F0FA7B019006
:10153F0000021207DDB40110900002E412084F12EE
:08154F0007C490000112084FCF
:011557002271
:05155800900302EDF01C
:10155D00EF75F003A424EDF9740235F0FA7B01E088
:10156D0012083D900302E090000112084F90000216
:04157D00E402084F2D
:10002600300009EF42A8EEC31342AF2220000AEFC8
:0A003600F452A8EEC313F452AF22F7
:0B179500900300E04EF0A3E04FF022B4
:10176A00EFF4FFEEF4FE900300E05EF0A3E05FF01A
:01177A00224C
:10175800900300E05EFEA3E05F4E60037F00227FFF
:0217680001225C
:0215D500C1044F
:10173000900302EFF01216AFEF6008900302E0FF93
:0417400012152F222D
:10174400E4FDEDC39FE49E500AE4FC0CECB464FB9E
:031754000D80EF16
:01175700226F
:0D000E00E4F5C7F5C5F5C675C380F5C4223D
:07167700E42FFFEE3402FE38
:10167E0075C78275C5018FC4EEF5C375C65A75C69A
:07168E00A500AFC212000E1F
:011695002232
:1016960075C78275C5028FC4EEF5C3AF058FC275D7
:0916A600C65A75C6A50002000E2B
:0413BA00AD07AC06C9
:1013BE0075C78275C5038DC4ECF5C375C65A75C65F
:1013CE00A500000012000EE4FBFAED2BFFEC3AFE36
:1013DE0012167EEFF460037F00220BBB00010AE4BD
:0913EE00B503E7EAB402E37F0154
:0113F70022D3
:0504FE00900332EFF055
:10050300E4900336F0900339F0A3F0EF20E0030208
:1005130005DB9003337401F0A37403F0A37422F09A
:10052300E4900337F0A3F0900337E0FEA3E0FFC3AA
:100533009406EE9400502512167E900337E0FCA338
:10054300E02418F58274033CF583EFF0900338E060
:1005530004F070D3900337E004F080CB90031CE0E9
:10056300FEA3E07C002400FFEC3E900339F0A3EFF0
:10057300F07B017A0379187D0412105B900339E054
:100583006E7003A3E06F6009900336E04401F080CE
:1005930047E4900337F0A3F0900337E0FEA3E0FFB6
:1005A3002418F58274033EF583E0FD900333E0FBEA
:1005B300A3E0FAA3E0F98F828E83ED12084F900334
:1005C30038E004F07006900337E004F0900337E05E
:1005D3007004A3E0640470C0900332E020E10302DE
:1005E30006A9A37401F0A37403F0A37416F0E490B6
:1005F3000337F0A3F0900337E0FEA3E0FFC39404B6
:10060300EE94005025121677900337E0FCA3E02404
:1006130018F58274033CF583EFF0900338E004F09F
:1006230070D3900337E004F080CB90031AE0FEA36D
:10063300E07C002400FFEC3E900339F0A3EFF07B55
:10064300017A0379187D0212105B900339E06E7012
:1006530003A3E06F6009900336E04404F08047E4AD
:10066300900337F0A3F0900337E0FEA3E0FF2418D4
:10067300F58274033EF583E0FD900333E0FBA3E0D2
:10068300FAA3E0F98F828E83ED12084F900338E0CE
:1006930004F07006900337E004F0900337E0700431
:0B06A300A3E0640270C0900336E0FF8B
:0106AE002229
:05004600900302EFF041
:10004B00C200C201E4900306F0A3F090030AF0A3F0
:10005B00F0EF20E0030201A59003037401F0A374F9
:10006B0003F0A37422F0E4900308F0A3F0900303D1
:10007B00E0FBA3E0FAA3E0F9900308E0FEA3E0FFA6
:10008B00F5828E831207DDFD74182FF58274033E03
:10009B00F583EDF0900309E004F07006900308E09F
:1000AB0004F0900308E07004A3E0640470BF7B01CC
:1000BB007A0379187D047C0012105B90030AEEF032
:1000CB00A3EFF090030AE0FCA3E0FDEC90031CF01F
:1000DB00A3EDF0E4900306F0E4FFFE1213BABF01A8
:1000EB0004D200800C900306E004F0E0C3940340BC
:1000FB00E72000030201A5E4900306F0E490030857
:10010B00F0A3F0900308E0FEA3E0FF2418F582743F
:10011B00033EF583E0FD121696900309E004F070A0
:10012B0006900308E004F0C3900309E094069003E3
:10013B0008E0940040CDE4900308F0A3F09003088E
:10014B00E0FEA3E0FFC39406EE9400503712167E38
:10015B00900308E0FCA3E02418F58274033CF583BC
:10016B00E06F6009900307E04402F08017900307EB
:10017B00E054FDF0900309E004F070C1900308E037
:10018B0004F080B9900307E030E10F900306E00420
:10019B00F0E0C394035003020107900302E020E157
:1001AB00030202F8A37401F0A37403F0A37416F016
:1001BB00E4900308F0A3F0900303E0FBA3E0FAA3A1
:1001CB00E0F9900308E0FEA3E0FFF5828E831207AF
:1001DB00DDFD74182FF58274033EF583EDF090036B
:1001EB0009E004F07006900308E004F0900308E0C7
:1001FB007004A3E0640270BF7B017A0379187D025F
:10020B007C0012105B90030AEEF0A3EFF090030A50
:10021B00E0FCA3E0FDEC90031AF0A3EDF0E49003F7
:10022B0006F07F007E021213BABF0104D201800CCC
:10023B00900306E004F0E0C3940340E620010302C0
:10024B0002F8E4900306F0E4900308F0A3F09003A7
:10025B0008E0FCA3E0FD2400FFEC3402FE74182D33
:10026B00F58274033CF583E0FD121696900309E0CA
:10027B0004F07006900308E004F0C3900309E094C7
:10028B0004900308E0940040C5E4900308F0A3F049
:10029B00900308E0FEA3E0FFC39404EE94005037F4
:1002AB00121677900308E0FCA3E02418F582740380
:1002BB003CF583E06F6009900307E04408F080177A
:1002CB00900307E054F7F0900309E004F070C1903D
:1002DB000308E004F080B9900307E030E30F9003CC
:1002EB0006E004F0E0C394035003020252900307AC
:0202FB00E0FF22
:0102FD0022DE
:10161200900322E4F0A3747DF0A37467F0A37478BE
:10162200F090031774EDF09003167423F07F030219
:02163200004670
:0715D700C1054203490000B9
:0E177B00900349EEF0A3EFF0D2052005FD2209
:03000B00020D7073
:100D7000C0E0C0F0C083C082C0D075D000C000C049
:0D0D800001C002C003C004C005C006C007CA
:100D8D007D037CEE7F0112171C900313E4F090039A
:100D9D0013E0FFC39403503FEF75F003A424EDF966
:100DAD00740235F0FA7B019000021207DD7020907D
:100DBD00000174FF12080A9000011207DD701090F7
:100DCD0000020412084F1207C490000112084F9040
:100DDD000313E004F080B730051FD390034AE0946D
:100DED0000900349E09400400EA3E024FFF090032F
:090DFD0049E034FFF08002C20558
:100E0600D007D006D005D004D003D002D001D00040
:0B0E1600D0D0D082D083D0F0D0E032EA
:03001B0002165674
:10165600C0E0C0F0C083C082C0D075D0087D677C72
:10166600FC7F0212171CD0D0D082D083D0F0D0E0FD
:011676003241
:030023000209BB14
:1009BB00C0E0C0F0C083C082C0D075D000C000C002
:0D09CB0001C002C003C004C005C006C00783
:1009D8007D027F0112146850447D027F011215EFD9
:1009E8009000F3E0FF9000F2E0FEC39F50239000D8
:1009F800F5E0FBA3E0FAA3E0F98E82758300E599A0
:100A080012084F9000F2E004F09000F1E004F0804A
:100A180006900314E599F09000F07401F07D017FD1
:100A28000112146850347D017F011215EF9000F90E
:100A3800E0FFA3E0FEC39F501BA3E0FBA3E0FAA3E3
:100A4800E0F98E827583001207DDF5999000FAE0CF
:0A0A580004F080069000F87401F02D
:100A6200D007D006D005D004D003D002D001D000E8
:0B0A7200D0D0D082D083D0F0D0E03292
:03004300020A7D31
:100A7D00C0E0C0F0C083C082C0D075D000C000C03F
:0D0A8D0001C002C003C004C005C006C007C0
:100A9A007D027F0212146850447D027F021215EF14
:100AAA00900101E0FF900100E0FEC39F50239001F6
:100ABA0003E0FBA3E0FAA3E0F98E82758300E59BCD
:100ACA0012084F900100E004F09000FFE004F0806B
:100ADA0006900315E59BF09000FE7401F07D017FFE
:100AEA000212146850347D017F021215EF9001073B
:100AFA00E0FFA3E0FEC39F501BA3E0FBA3E0FAA321
:100B0A00E0F98E827583001207DDF59B900108E0FB
:0A0B1A0004F080069001067401F05B
:100B2400D007D006D005D004D003D002D001D00025
:0B0B3400D0D0D082D083D0F0D0E032CF
:100BFE0041540D0A004F4B0D0A0041542B495052DF
:100C0E003D393630300D0A00415426570D0A004149
:100C1E00542B51474E5353433F002B51474E535382
:100C2E00433A20310041542B51474E5353433D31EB
:100C3E000041542B435343533D2247534D220D0A3B
:100C4E000041542B43504D533D22534D222C2253E1
:100C5E004D222C22534D220041542B434E4D493DE3
:100C6E00322C310041542B434D47463D3100415407
:100C7E002B43504D533F0041542B434D47443D3180
:100C8E002C34003E0041542B434D47533D2231330B
:100C9E00303636383832383630220D0A0000000031
:0C0CAE000000001A000D0A2B434D5449B1
:1015DE000E2141542B434D47523D20200D0A000051
:1014CF00EF30E0154387805387BFC29FD29E8D9C1C
:1014DF00438E04438E01438E10EF30E113539A7FF6
:1014EF00439A40AF058F9C438E08438E0453A2EF5F
:0114FF0022CA
:10163400EF30E00C300004D29C8005200002C29CF4
:10164400EF30E10D300004439A1022200003539A36
:02165400EF2283
:10146800C203EFB40114ED24FE6009047025A299AB
:101478009203801FA29892038019EFB40215ED24FD
:10148800FE600B04700DE59AA2E192038005E59ACF
:05149800139203A20302
:01149D00222C
:1015EF00EF30E00CED30E002C299ED30E102C2982D
:1015FF00EF30E10EED30E003539AFDED30E1035390
:03160F009AFE221E
:10120300EF30E025E49000F4F09000F2F09000F16C
:10121300F09000F37478F0E49000F0F09000F5049F
:10122300F0A37401F0A3740CF0EF30E125E4900116
:1012330002F0900100F09000FFF0900101743CF087
:10124300E49000FEF090010304F0A37401F0A37492
:03125300C0F022C6
:10133A00EF5403FEBE031AE49000F9F09000F8049B
:10134A00F0E49000FAF0A304F0A37401F0A374840B
:10135A00F0EF30E21AE4900107F090010604F0E49D
:10136A00900108F0A304F0A37401F0A374FCF02226
:1016DD007DB87F031214CFD2007F0312163412127D
:0616ED00037F0702133A1F
:1008C900900305EBF0A3EAF0A3E9F0ED6401706D84
:1008D9009000F0E07002FF229000F3E0FFA3E0FE39
:1008E900C39F5048A3E0FBA3E0FAA3E0F98E827509
:1008F90083001207DDFF900305E0FBA3E0FAA3E004
:10090900F9EF12083D9000F4E004F09000F1E0D313
:1009190094004003E014F09000F1E0700C9000F0B6
:10092900F09000F2F09000F4F07F0122E49000F0E2
:10093900F09000F2F09000F4F09000F1F0ED640214
:10094900706D9000FEE07002FF22900101E0FFA3AC
:10095900E0FEC39F5048A3E0FBA3E0FAA3E0F98EB1
:10096900827583001207DDFF900305E0FBA3E0FA1F
:10097900A3E0F9EF12083D900102E004F09000FFB6
:10098900E0D394004003E014F09000FFE0700C9075
:1009990000FEF0900100F0900102F07F0122E49046
:1009A90000FEF0900100F0900102F09000FFF07F4E
:0209B90000221A
:0706AF00E0900309F07F0356
:0B06B600900306EBF0A3EAF0A3E9F0CC
:1006C100EF6403707B9000F8E07002FF22E4900079
:1006D100F8F0900309E09000F9F0E4A3F0FE900334
:1006E10009E0FDEEC39D502B900306E0FBA3E0FA69
:1006F100A3E0F98E827583001207DDFD9000FBE017
:10070100FBA3E0FAA3E0F98E82758300ED12084F96
:100711000E80CB9000F9E0FDA3E0FCC39D501BA32C
:10072100E0FBA3E0FAA3E0F98C827583001207DDF8
:10073100F5999000FAE004F080069000F87401F059
:10074100EF6404707B900106E07002FF22E49001E7
:1007510006F0900309E0900107F0E4A3F0FE900396
:1007610009E0FFEEC39F502B900306E0FBA3E0FAE4
:10077100A3E0F98E827583001207DDFF900109E085
:10078100FBA3E0FAA3E0F98E82758300EF12084F14
:100791000E80CB900107E0FFA3E0FDC39F501BA398
:1007A100E0FBA3E0FAA3E0F98D827583001207DD77
:1007B100F59B900108E004F080069001067401F0B9
:0207C1007F01B6
:0107C3002213
:1012A6007D027F0212149EE490034BF07FC87E00FD
:1012B60012177B90033E74FFF0A3740CF0A3740323
:1012C600F07BFF7A0B79FE120CBABF010A7D027F12
:1012D600021214317F002290034BE004F0E0C39425
:0C12E6000540C97D027F021214317F0810
:0112F20022D9
:1013F80090033E74FFF0A3740CF0A37403F07BFF1A
:101408007A0C7908120CBABF011790033E74FFF0EA
:10141800A3740CF0A37403F07BFF7A0C7916020C0A
:09142800BA7F207E001217952204
:10137A0090033E74FFF0A3740CF0A37428F07BFF73
:10138A007A0C791D120CBAEF6401602390033E7443
:10139A00FFF0A3740CF0A37403F07BFF7A0C79338B
:1013AA00120CBAEF640160077F087E0012179522BB
:100F420090033E74FFF0A3740CF0A37403F07BFFD4
:100F52007A0C793F120CBAEF640160077F107E00B1
:100F620012179590033E74FFF0A3740CF0A3740360
:100F7200F07BFF7A0C794F120CBAEF640160077FA5
:100F8200107E0012179590033E74FFF0A3740CF0CC
:100F9200A37403F07BFF7A0C7966120CBAEF64013A
:100FA20060077F107E0012179590033E74FFF0A336
:100FB200740CF0A37403F07BFF7A0C7972120CBAF2
:0D0FC200EF640160077F107E00121795227A
:1016C6001212A6EF70091213F812137A020F427F54
:0716D600087E0012179522A7
:1010CD007E007F787D007B017A0079001208879081
:1010DD00033E74FFF0A3740CF0A37403F07BFF7A4E
:1010ED000C797C120CBAEF6401703B900018E0FF94
:1010FD00642C602F900017E0C394344026EFD394F6
:10110D0035402090033E74FFF0A3740CF0A37403DC
:10111D00F07BFF7A0C7985120CBABF01037F012297
:10112D007F00227F01227F107E001217957F002203
:0E0E2100900344EBF0A3EAF0A3E9F0A3EDF098
:100E2F00E4A3F0900347E075F01EA42493F9740C2B
:100E3F0035F0FA7BFFC00390033EEBF0A3740CF088
:100E4F00A37491F0D003120CBAEF640170419003B8
:100E5F0044E0F9A3E0FAA3E090033EC9F0A3EAF05F
:100E6F00A3E9F0900344E0FBA3A3E0F9120CBABF8F
:100E7F00011D90033E74FFF0A3740CF0A37403F0F4
:100E8F007BFF7A0C79B1120CBABF01037F0122905C
:100E9F000348E004F0E0C3940340887F107E001203
:040EAF0017957F0014
:010EB300221C
:10113D00E4FF7E02740C2EF582E43401F583E0FDAC
:10114D00EE900CB393B505010F0EEEB407E6EF6408
:10115D0005704B90011BE0FFB40D0990011AE0786A
:10116D0029F6800A90011AE07829F608A6077E0074
:10117D007F787D007B017A00790012088790033E0D
:10118D0074FFF0A3740CF0A37403F07B007A007964
:0E119D0021120CBABF0107900001E07830F675
:0111AB002221
:0B0CBA0090033BEBF0A3EAF0A3E9F08D
:100CC500E4900341F090033BE0FBA3E0FAA3E0F9D5
:100CD5001207C46008900341E004F080E8E4900343
:100CE50042F012000090033BE0FBA3E0FAA3E0F919
:100CF5009003411206AFEF60ECE4900343F07F0AE6
:100D05007E0012177B90033EE0F9A3E0FAA3E09082
:100D15000329C9F0A3EAF0A3E9F07B017A01790C74
:100D2500120B3FE94A4B6025E4FF740C2FF582E472
:100D35003401F583E0FE74002FF582E43400F58379
:100D4500EEF00FEFB478E31200007F012290034329
:100D5500E004F0E0C3940540A5900342E004F0E010
:0A0D6500C394035003020CE77F0063
:010D6F002261
:0511AC00900302EFF0CA
:1011B100E4900304F01216AFEF60467B017A0379E5
:1011C100037D011208C9BF011A900303E0FFA3E0E8
:1011D1002474F582E43402F583EFF0900304E00413
:1011E100F080D87B017A027974900304E0900309BE
:1011F100F07F041206B6EF60EA900302E0FF1215D9
:011201002FBD
:0112020022C9
:05125600900302EFF01F
:10125B00E4900304F01216AFEF603F7B017A037941
:10126B00037D021208C9BF011A900303E0FFA3E03C
:10127B002478F582E43400F583EFF0900304E00466
:10128B00F080D87B017A0079789003041206AFEFD7
:0A129B0060F1900302E0FF12152F2E
:0112A5002226
:100FDB00021708E493A3F8E493A34003F68001F20D
:100FEB0008DFF48029E493A3F85407240CC8C33317
:100FFB00C4540F4420C8834004F456800146F6DFE6
:10100B00E4800B01020408102040809015CCE47E94
:10101B00019360BCA3FF543F30E509541FFEE493DA
:10102B00A360010ECF54C025E060A840B8E493A3A1
:10103B00FAE493A3F8E493A3C8C582C8CAC583CACC
:10104B00F0A3C8C582C8CAC583CADFE9DEE780BE84
:0115EE0000FC
:1007C400BB010689828A83E0225002E722BBFE0233
:0907D400E32289828A83E4932266
:1007DD00BB010CE58229F582E5833AF583E02250D1
:1007ED0006E92582F8E622BBFE06E92582F8E2221B
:0D07FD00E58229F582E5833AF583E4932235
:10080A00BB010FF8E58229F582E5833AF583E028F2
:10081A00F0225009C58229F8E58226F622BBFE0994
:10082A00C58229F8E22582F222F8EA2583F583E9CE
:03083A00932822DE
:10083D00BB010689828A83F0225002F722BBFE019A
:02084D00F32294
:10084F00F8BB010DE58229F582E5833AF583E8F0DF
:10085F00225006E92582C8F622BBFE05E92582C88B
:02086F00F22273
:10087100A3F8E0C5F025F0F0E5821582700215833A
:06088100E0C838F0E82297
:100B3F00900326EBF0A3EAF0A3E9F0A3E0FBA3E018
:100B4F00FAA3E0F91207C47003020BEB900326E03F
:100B5F00FBA3E0FAA3E0F91207C47003020BF790AE
:100B6F000329E0F9A3E0FAA3E0A3C9F0A3EAF0A3F5
:100B7F00E9F0900326A3E0FAA3E0F990032FEBF03E
:100B8F00A3EAF0A3E9F090032CE0FBA3E0FAA3E0C3
:100B9F00F91207C4FF602690032FE0FBA3E0FAA32E
:100BAF00E0F91207C46F701590032D75F00112084C
:100BBF00B3900330E475F0011208B380C990032C91
:100BCF00E0FBA3E0FAA3E0F91207C47002800D90D6
:100BDF000327E475F0011208B3020B5B900326E0C4
:0F0BEF00FBA3E0FAA3E0F9227B007A0079002251
:10088700EF4E6012EF60010EEDBB010B89828A8388
:10089700F0A3DFFCDEFA2289F05007F709DFFCA995
:0C08A700F022BBFEFCF309DFFCA9F022EC
:1008B300C5F0F8A3E028F0C5F0F8E58215827002D0
:0608C3001583E038F0226D
:00000001FF
