:03000000024605B0
:0C460500787FE4F6D8FD75817602464C03
:10507B007D147C00E4FF124F3C7D287C007F0212E4
:0B508B004F3C7D247C007F01024F3C65
:104F6900D2037F9A7E021250961251AA12515812F8
:104F79004C0212495D1251C012507B1250CA124F95
:0C4F89000E90034A121FA200000000223C
:10514400124F69E4FF1200267F01123B157F021201
:04515400437680EF2F
:10469100E4FEFCEFD3943F400302471CEB9403502C
:1046A1007AEB30E003ED4206EB30E403ED4204EF38
:1046B10030E00EEDF4FB5294EE4294EB5293EC4257
:1046C10093EF30E10EEDF4FB5292EE4292EB5291F8
:1046D100EC4291EF30E20EEDF4FB5296EE4296EB96
:1046E1005295EC4295EF30E30EEDF4FB52B2EE42FF
:1046F100B2EB52B1EC42B1EF30E40EEDF4FB52B447
:10470100EE42B4EB52B3EC42B3EF30E50EEDF4FF01
:0B47110052CAEE42CAEF52C9EC42C986
:01471C00227A
:104E2300EFD3943F502AEF30E003ED4280EF30E1BF
:104E330003ED4290EF30E203ED42A0EF30E303EDE8
:104E430042B0EF30E403ED42C0EF30E503ED42C87A
:014E5300223C
:074CC8007B011246917F0100
:104CCF00EFD3943F5030EF30E004EDF45280EF30EB
:104CDF00E104EDF45290EF30E204EDF452A0EF3026
:104CEF00E304EDF452B0EF30E404EDF452C0EF30D2
:074CFF00E504EDF452C822A8
:104BBD00E4F9EF24FE601A24FE601C24FC601E2420
:104BCD00F8602024F06022241F7022E5805DF980BA
:104BDD001CE5905DF98016E5A05DF98010E5B05DEE
:104BED00F9800AE5C05DF98004E5C85DF9E9700258
:044BFD00FF227F0113
:014C01002290
:104C02007B117D017F021246917F02124E237B01AE
:104C12007D101F124CCA7D80124CC87D20124CC8D8
:104C22007B017D047F101246917F10124CCF43BB53
:104C3200407B017D401246917B017F011246917FAC
:044C420001024CCF50
:10517E00BF01058D8A8C8C22BF02048D8B8C8D22F3
:104E5400AE07EE30E0125389F1438901538E7F7D12
:104E6400037CEE7F0112517EEE30E11253891F4321
:0F4E74008910538EBF7D1E7C4C7F0212517E220F
:10501200EF30E00EBD01054388108006ED700353AA
:1050220088EFEF30E10DBD010443884022ED7003AB
:045032005388BF22BE
:0C51AA007F03124E547D017F030250125F
:102CEC0000C1814001C0804101C0804100C18140D0
:102CFC0001C0804100C1814000C1814001C08041C0
:102D0C0001C0804100C1814000C1814001C08041AF
:102D1C0000C1814001C0804101C0804100C181409F
:102D2C0001C0804100C1814000C1814001C080418F
:102D3C0000C1814001C0804101C0804100C181407F
:102D4C0000C1814001C0804101C0804100C181406F
:102D5C0001C0804100C1814000C1814001C080415F
:102D6C0001C0804100C1814000C1814001C080414F
:102D7C0000C1814001C0804101C0804100C181403F
:102D8C0000C1814001C0804101C0804100C181402F
:102D9C0001C0804100C1814000C1814001C080411F
:102DAC0000C1814001C0804101C0804100C181400F
:102DBC0001C0804100C1814000C1814001C08041FF
:102DCC0001C0804100C1814000C1814001C08041EF
:102DDC0000C1814001C0804101C0804100C18140DF
:102DEC0000C0C101C30302C2C60607C705C5C4049F
:102DFC00CC0C0DCD0FCFCE0E0ACACB0BC90908C80F
:102E0C00D81819D91BDBDA1A1EDEDF1FDD1D1CDCFE
:102E1C0014D4D515D71716D6D21213D311D1D0106E
:102E2C00F03031F133F3F23236F6F737F53534F45E
:102E3C003CFCFD3DFF3F3EFEFA3A3BFB39F9F838CE
:102E4C0028E8E929EB2B2AEAEE2E2FEF2DEDEC2CBE
:102E5C00E42425E527E7E62622E2E323E12120E02E
:102E6C00A06061A163A3A26266A6A767A56564A41E
:102E7C006CACAD6DAF6F6EAEAA6A6BAB69A9A8688E
:102E8C0078B8B979BB7B7ABABE7E7FBF7DBDBC7C7E
:102E9C00B47475B577B7B67672B2B373B17170B0EE
:102EAC0050909151935352929656579755959454DE
:102EBC009C5C5D9D5F9F9E5E5A9A9B5B995958984E
:102ECC00884849894B8B8A4A4E8E8F4F8D4D4C8C3E
:102EDC0044848545874746868242438341818040AE
:103A06000257000042035D0000C10644034A00005D
:093A1600000044039B00000000C5
:0A4A26008B3B8A3C893D8C3E8D3F9E
:104A30007540007541FF7DFFE53F153FAE3E7002BA
:104A4000153E4E6036AB3B053DE53DAA3C70020588
:104A50003C14F9121C2D6DFF7E0024ECF582EE341F
:104A60002CF583E4936541FD74EC2FF582EE342D33
:104A7000F583E493754000F54180BDE541FEEDFF0F
:014A80002213
:10511700EF75F005A4244EF9740335F0FA7B01907E
:065127000004121C46FF0B
:01512D00225F
:104EB200EF75F005A4244EF9740335F0FA7B0190E6
:104EC2000004121C46B40115900004E4121C851261
:0D4ED2001D0EFF900002E5F08FF0121DDDB7
:014EDF0022B0
:044F3C008C228D2313
:104F4000EF75F005A4244EF9740335F0FA7B01E502
:104F5000228523F0121DBE900002E5228523F01267
:094F60001DDD900004E4021C8533
:10509600300309EF42A8EEC31342AF2220030AEF02
:0A50A600F452A8EEC313F452AF2237
:07000300EF4258EE425722C4
:0D000E00EFF4FFEEF4FEEF5258EE525722D1
:0F518E00E5575EFEE5585F4E7002FF227F01225B
:104F9500ED7012EFC394304020EFD39439501AC30B
:104FA500EF9430FF22BD0111EFC39400400BEFD306
:0C4FB50094095005EF2430FF227F2022D9
:10516C00E4FDFCC3ED9FEC9E50070DBD00010C80CF
:01517C00F240
:01517D00220F
:103A1F000150000151000152004403D60000000084
:103A2F004403DA000000004403DE000000004403FA
:103A3F00E2000000004403E6000000004403EA0037
:103A4F00000000C1004203EE00000153004103F0EB
:103A5F00004103F1004403F2000000004403F600AC
:103A6F00000000C101C1024203FA00004203FC0042
:013A7F000046
:10201500E4F526F525F524F5239003D5E020E30323
:102025000221529003BEE0FEA3E0FFE48F268E2539
:10203500F524F523E550C3940340030220EE9002F6
:10204500AFE0FCA3E0FDA3E0FEA3E02446FFE43EF1
:10205500FEE43DFDE43CFCAB26AA25A924A823D338
:10206500121F3540030220EBE550700575500180C5
:102075005FE550C3940140719003E2E0FCA3E0FDED
:10208500A3E0FEA3E0240AFFE43EFEE43DFDE43CBC
:10209500FC90034AE0F8A3E0F9A3E0FAA3E0FBC350
:1020A500121F4B50419003D6E0FCA3E0FDA3E0FED8
:1020B500A3E0FF9002AFE0F8A3E0F9A3E0FAA3E004
:1020C500FBC3121F3560220550E550D39402401919
:1020D50090034AE0FCA3E0FDA3E0FEA3E0FF90032C
:1020E500E2121F968003E4F550E5506403704A90B0
:1020F50003C0E0FEA3E0FFE4FCFD9003E2E0F8A3EB
:10210500E0F9A3E0FAA3E02FFFEA3EFEED39FDEC8E
:1021150038FC90034AE0F8A3E0F9A3E0FAA3E0FB5A
:10212500C3121F4B50097D047F10124E23800A7580
:1021350050047D047F10124CCF9002AFE0FCA3E069
:10214500FDA3E0FEA3E0FF9003D6121F969003D5F2
:10215500E020E4030222869003C2E0FEA3E0FFE450
:102165008F268E25F524F523E551C39403400302FC
:1021750022229002AFE0FCA3E0FDA3E0FEA3E02451
:1021850046FFE43EFEE43DFDE43CFCAB26AA25A962
:1021950024A823D3121F35400302221FE5517005E1
:1021A500755101805FE551C3940140719003E6E0EC
:1021B500FCA3E0FDA3E0FEA3E0240AFFE43EFEE469
:1021C5003DFDE43CFC90034AE0F8A3E0F9A3E0FA06
:1021D500A3E0FBC3121F4B50419003DAE0FCA3E0E0
:1021E500FDA3E0FEA3E0FF9002AFE0F8A3E0F9A3B2
:1021F500E0FAA3E0FBC3121F3560220551E551D378
:102205009402401990034AE0FCA3E0FDA3E0FEA37D
:10221500E0FF9003E6121F968003E4F551E5516453
:1022250003704A9003C4E0FEA3E0FFE4FCFD9003C5
:10223500E6E0F8A3E0F9A3E0FAA3E02FFFEA3EFE0B
:10224500ED39FDEC38FC90034AE0F8A3E0F9A3E092
:10225500FAA3E0FBC3121F4B50097D047F10124EF9
:1022650023800A7551047D047F10124CCF9002AF74
:10227500E0FCA3E0FDA3E0FEA3E0FF9003DA121F5C
:10228500969003D5E020E5030223BA9003C6E0FE4D
:10229500A3E0FFE48F268E25F524F523E552C394AC
:1022A5000340030223569002AFE0FCA3E0FDA3E048
:1022B500FEA3E02446FFE43EFEE43DFDE43CFCAB2A
:1022C50026AA25A924A823D3121F35400302235388
:1022D500E5527005755201805FE552C39401407166
:1022E5009003EAE0FCA3E0FDA3E0FEA3E0240AFFDF
:1022F500E43EFEE43DFDE43CFC90034AE0F8A3E047
:10230500F9A3E0FAA3E0FBC3121F4B50419003DE93
:10231500E0FCA3E0FDA3E0FEA3E0FF9002AFE0F840
:10232500A3E0F9A3E0FAA3E0FBC3121F3560220581
:1023350052E552D39402401990034AE0FCA3E0FD14
:10234500A3E0FEA3E0FF9003EA121F968003E4F5E5
:1023550052E5526403704A9003C8E0FEA3E0FFE42F
:10236500FCFD9003EAE0F8A3E0F9A3E0FAA3E02F6F
:10237500FFEA3EFEED39FDEC38FC90034AE0F8A398
:10238500E0F9A3E0FAA3E0FBC3121F4B50097D045B
:102395007F10124E23800A7552047D047F10124C63
:1023A500CF9002AFE0FCA3E0FDA3E0FEA3E0FF9029
:0523B50003DE121F967B
:0123BA002200
:10379F009003D5E030E0689003ACE0FCA3E0FDA31C
:1037AF00E0FEA3E0FF90034AE0F8A3E0F9A3E0FAFC
:1037BF00A3E0FBD3121F4B403F9003B0E0FEA3E00A
:1037CF00FFE4FCFD9003ACE0F8A3E0F9A3E0FAA35B
:1037DF00E02FFFEA3EFEED39FDEC38FC90034AE0A6
:1037EF00F8A3E0F9A3E0FAA3E0C3121F4B50097D41
:1037FF00047F10124E2380077D047F10124CCF9050
:10380F0003D5E030E1689003B2E0FCA3E0FDA3E054
:10381F00FEA3E0FF90034AE0F8A3E0F9A3E0FAA3C8
:10382F00E0FBD3121F4B403F9003B6E0FEA3E0FF37
:10383F00E4FCFD9003B2E0F8A3E0F9A3E0FAA3E003
:10384F002FFFEA3EFEED39FDEC38FC90034AE0F81D
:10385F00A3E0F9A3E0FAA3E0C3121F4B50097D04C4
:10386F007F10124E2380077D047F10124CCF9003E0
:10387F00D5E030E2669003B8E0FCA3E0FDA3E0FEE4
:10388F00A3E0FF90034AE0F8A3E0F9A3E0FAA3E076
:10389F00FBD3121F4B403D9003BCE0FEA3E0FFE4BF
:1038AF00FCFD9003B8E0F8A3E0F9A3E0FAA3E02F42
:1038BF00FFEA3EFEED39FDEC38FC90034AE0F8A339
:1038CF00E0F9A3E0FAA3E0C3121F4B50077D047F7A
:0C38DF0010024E237D047F10124CCF22FB
:103FC50012201512379F7F027E0012518EEF604C32
:103FD5009003EFE004F070069003EEE004F0900328
:103FE500EEE0FEA3E0FFD3942CEE94014011EF9494
:103FF50084EE940350097D047F10124E23801DC367
:104005009003EFE094849003EEE09403400E740374
:10401500F0A37484F07D047F10124CCF300618D2C3
:1040250000C20690034AE0FCA3E0FDA3E0FEA3E086
:10403500FF90039B121F9630005890035DE0FEA38E
:10404500E0FFE4FCFD90039BE0F8A3E0F9A3E0FAB0
:10405500A3E02FFFEA3EFEED39FDEC38FC90034A64
:10406500E0F8A3E0F9A3E0FAA3E0FBC3121F4B506D
:10407500077D047F10024E23C20090039B121FA2EE
:1040850000000000E490035DF0A3F07D047F1012B2
:024095004CCF0E
:014097002206
:104D430074FFFFFE12518EEF70120553E553B40A40
:104D5300028010E553C39414402180150553E55395
:104D6300B402077D807F01024CCFE553C394044016
:0B4D73000AE4F5537D807F01124E23FF
:014D7E002212
:103C1C0090039FE0FCA3E0FDA3E0FEA3E0FF900275
:103C2C00AFE0F8A3E0F9A3E0FAA3E0FBD3121F3551
:103C3C005003023CE420021ED202E49003F0F09008
:103C4C00034AE0FCA3E0FDA3E0FEA3E0FF9003F633
:103C5C00121F96023CEB200203023CEB9003F6E0B1
:103C6C00FCA3E0FDA3E0FEA3E02414FFE43EFEE48D
:103C7C003DFDE43CFC90034AE0F8A3E0F9A3E0FA34
:103C8C00A3E0FBC3121F4B504F9002AFE0FCA3E02C
:103C9C00FDA3E0FEA3E0FF9003F2E0F8A3E0F9A39C
:103CAC00E0FAA3E0FBC3121F3560349003F0E0048C
:103CBC00F0E0D394034028C202E4F09002AFE0FCA1
:103CCC00A3E0FDA3E0FEA3E0FF90039F121F96E488
:103CDC009003F1F0D2018007C202E49003F0F030BF
:103CEC0001139003F1E004F0E0D3945A4007C201B1
:103CFC00E4F0435A029002AFE0FCA3E0FDA3E0FE27
:093D0C00A3E0FF9003F2021F96F0
:10488700123C1CC39003FBE094709003FAE094176A
:10489700401DE4F0A3F090034AE0FCA3E0FDA3E091
:1048A700FEA3E0FF9003A3121F96435A02800E90C7
:1048B70003FBE004F070069003FAE004F09003FCB9
:1048C700E065577004A3E06558601FE558455760D9
:1048D700199003A7E04557F0A3E04558F09003FC73
:0A48E700E557F0A3E558F0435A022C
:0148F10022A4
:100026008F22125117EF60141238EB123FC5124D92
:0D00360043124887124FEBAF22124EB22248
:063A8000015A000159008B
:0D519D00E4F5C7F5C5F5C675C380F5C4225D
:0350B0003402FEC9
:1050B30075C78275C5018FC48EC375C65A75C6A5DB
:0650C30000AFC212519D76
:0150C90022C4
:10512E0075C78275C5028FC48EC38DC275C65A757A
:06513E00C6A50002519D10
:044D0600AD07AC0643
:104D0A0075C78275C5038DC48CC375C65A75C6A589
:104D1A0000000012519DE4FBFAED2BFFEC3AFE1263
:104D2A0050B3EFF460037F00220BBB00010AE4B525
:084D3A0003E7EAB402E37F0184
:014D4200224E
:023650008F25C4
:10365200E4F529F52CF52DF529E52520E0030237BF
:10366200047F027E0012000E75260175270375285D
:10367200A9E4F52AF52BAF2BAE2A1250B3745F25BD
:103682002BF5827403352AF583EFF0052BE52B70B9
:1036920002052AC3942FE52A940040DA90038CE0B5
:1036A200FEA3E07C002400F52DEC3EF52C7B017A94
:1036B20003795F7D2D124A26EF652D7003EE652C8E
:1036C2006005432901802FE4F52AF52B745F252B31
:1036D200F5827403352AF583E0AB26AA27A928854B
:1036E2002B82852A83121C85052BE52B7002052A65
:1036F200642D452A70D6E52930E0077F027E00124C
:103702000003E52520E10302379C75260175270396
:1037120075289FE4F52AF52BE4252BFFE52A1250A4
:10372200B0745F252BF5827403352AF583EFF0051B
:103732002BE52B7002052AC3940CE52A940040D88D
:10374200900369E0FEA3E07C002400F52DEC3EF539
:103752002C7B017A03795F7D0A124A26EF652D7070
:1037620003EE652C6005432904802FE4F52AF52B2E
:10377200745F252BF5827403352AF583E0AB26AA04
:1037820027A928852B82852A83121C85052BE52BE8
:0C3792007002052A640A452A70D6AF298F
:01379E002208
:0228DE008F2544
:1028E000E4F529F52AF52DF52EF52AE52520E00356
:1028F0000229F07F017E0012000E75260175270364
:102900007528A9E4F52BF52CAB26AA27A928852C38
:1029100082852B83121C46FF745F252CF58274037D
:10292000352BF583EFF0052CE52C7002052B642D7B
:10293000452B70D47B017A03795F7D2D7C00124A90
:10294000268E2D8F2EE52D90038CF0A3EFF0E4F56D
:1029500029E4FFFE124D06BF0105532AEF800C4308
:102960002A100529E529C3940340E6E52A20E471ED
:10297000E4F529E4F52BF52C745F252CF58274031E
:10298000352BF583E0FDAF2CAE2B12512E052CE537
:102990002C7002052BC3942FE52B940040DAE4F54C
:1029A0002BF52CAF2CAE2B1250B3745F252CF58277
:1029B0007403352BF583E06F6005432A02801453BE
:1029C0002AFD052CE52C7002052BC3942FE52B94D2
:1029D0000040D0E52A30E1090529E529C3940340E8
:1029E00092E52A20E10330E4077F017E0012000314
:1029F000E52520E103022AE77526017527037528DE
:102A00009FE4F52BF52CAB26AA27A928852C8285D7
:102A10002B83121C46FF745F252CF5827403352B23
:102A2000F583EFF0052CE52C7002052B640A452B8D
:102A300070D47B017A03795F7D0A7C00124A268E6E
:102A40002D8F2EE52D900369F0A3EFF0E4F5297F9B
:102A5000007E02124D06BF0105532ADF800C432A77
:102A6000200529E529C3940340E5E52A20E578E41B
:102A7000F529E4F52BF52CE4252CFFE52B3402FE9B
:102A8000745F252CF5827403352BF583E0FD12511C
:102A90002E052CE52C7002052BC3940CE52B94001D
:102AA00040D5E4F52BF52CE4252CFFE52B1250B096
:102AB000745F252CF5827403352BF583E06F600578
:102AC000432A088014532AF7052CE52C7002052BA5
:102AD000C3940CE52B940040CEE52A30E309052988
:092AE000E529C39403408BAF2AE1
:012AE90022CA
:104098009003A97401F0A3E4F0A3747DF0A3121FA8
:1040A800A200015F90E49003B0F0A3F0A3121FA256
:1040B80000015F90E49003B6F0A3F0A3121FA200E2
:1040C800015F90E49003BCF0A3F0A374C3F0A37461
:1040D80050F0E4A3F0A3F0A374C3F0A37450F0E489
:1040E800A3F0A3F0A374C3F0A37450F0E4A3F0A367
:1040F800F09003D5E054FEF054FDF054FBF054F773
:10410800F054EFF054DFF0543FF09003CA7431F0EC
:10411800A37433F0A37430F0A37436F0A3F0A3743F
:1041280038F0A3F0A37432F0A37438F0A37436F017
:10413800A37430F09003A3121FA2000000009003A4
:104148009F121FA200000000E49003A7F0A3F02232
:1048F200E4F523F5247F01123650EF60077F0112A1
:1049020028DE8024E4F522AF227E001250B3BFFFDE
:10491200020523E523C3942D40057F011228DE05FD
:1049220022E522C3942D40DF7F02123650EF60024F
:104932008023E4F522E42522FFE43402FE1250B380
:10494200BFFF0205240522E522C3940A40E7E524BD
:0A495200C3940A40057F021228DE1C
:01495C002238
:0651C0001240980248F2C3
:104FEB00E559C394325003055922E4F559E55A307B
:104FFB00E007535AFE7F01800AE55A30E108535A05
:06500B00FD7F021228DE09
:01501100227C
:093A8600C10702540000015600C2
:0A51B6008E548F55D2072007FD220A
:03000B0002415857
:10415800C0E0C0F0C083C082C0D075D000C000C02D
:0D41680001C002C003C004C005C006C007AE
:104175007D037CEE7F0112517E754600E54675F0A4
:1041850005A4244EF9740335F0FA7B01900004125E
:104195001C46702990000274FFF5F0121D71900005
:1041A50002121D3945F0701590000404121C851289
:1041B5001D0EFF900002E5F08FF0121DDD0546E5AE
:1041C50046B403B8300717D3E5559400E554940079
:1041D500400AE5551555700215548002C207785BF3
:1041E500E6B40113785D06E6D39402400A785B765F
:0741F50003087600087600C4
:1041FC00D007D006D005D004D003D002D001D00017
:0B420C00D0D0D082D083D0F0D0E032C0
:03001B00024B286D
:104B2800C0E0C0F0C083C082C0D075D0087D1E7CB4
:104B38004C7F0212517E0556E556C39414402275E7
:104B4800560090034AE0FCA3E0FDA3E0FEA3E024A6
:104B580001FFE43EFEE43DFDE43CFC90034A121FE5
:0C4B680096D0D0D082D083D0F0D0E032C4
:0300430002442252
:10442200C0E0C0F0C083C082C0D075D000C000C060
:0D44320001C002C003C004C005C006C007E1
:10443F007D027F02124DEF50347D027F0212503603
:10444F00785CE6FFC3785F96501808860308E6FA93
:10445F0008E6F98F82758300E59B121C85785C0650
:10446F008003859B47785D7600785B76017D017FC1
:10447F0002124DEF502D7D017F021250367865E606
:10448F00FFC3189650197866860308E6FA08E6F90E
:10449F008F82758300121C46F59B78650680047821
:0344AF0063760130
:1044B200D007D006D005D004D003D002D001D0005E
:0B44C200D0D0D082D083D0F0D0E03208
:030023000244CDC7
:1044CD00C0E0C0F0C083C082C0D075D000C000C0B5
:0D44DD0001C002C003C004C005C006C00736
:1044EA007D027F01124DEF50327D027F011250365C
:1044FA00786BE6FFC30896501B786E860308E6FAC7
:10450A0008E6F98F82758300E599121C85786B0697
:10451A0018068003859948786976017D017F011222
:10452A004DEF502D7D017F011250367873E6FFC39F
:10453A00189650197874860308E6FA08E6F98F8205
:10454A00758300121C46F599787306800478717693
:01455A00015F
:10455B00D007D006D005D004D003D002D001D000B4
:0B456B00D0D0D082D083D0F0D0E0325E
:033A8F00011F0014
:104E8300EF30E0154387805387BFC29FD29E8D9C2E
:104E9300438E04438E01438E10EF30E111539A7F0A
:0F4EA300439A408D9C438E08438E0453A2EF2206
:10505900EF30E00C300304D29C8005200302C29C8F
:10506900EF30E10D300304439A1022200303539AD1
:02507900EF2224
:104DEF00C205BF0114ED24FE6009047024A299923C
:104DFF0005801EA29892058018BF0215ED24FE6053
:104E0F000B04700DE59AA2E192058005E59A1392C5
:034E1F0005A205E4
:014E2200226D
:10503600EF30E00CED30E002C299ED30E102C298AB
:10504600EF30E10EED30E003539AFDED30E103530E
:035056009AFE229D
:104818008F22E52230E0397E007F967D007B017A89
:1048280000790F121FD37E007F967D007B017A00EE
:1048380079A5121FD3E4785CF6785F7696785BF6F4
:10484800785DF6087602786076010876000876A525
:10485800E52230E1297E007F3C7D007B017A0179E9
:1048680077121FD3E4786DF6786BF618F6786C76C5
:0F4878003C7869F6786E7601087601087677222B
:104A81008F22E5225403FFBF03227E007F3C7D007D
:104A91007B017A01793B121FD3E47864F618760121
:104AA1007865F608760108760108763BE52230E262
:104AB100227E007F967D007B017A0179B3121FD39C
:104AC100E47872F61876017873F6087601087601B3
:044AD1000876B3228E
:105158007DB87F03124E83D2031250591248187F2C
:0451680007024A816F
:1049C4008B268A278928ED640270547869E6700280
:1049D400FF22786DE6FFC318965037786E86030879
:1049E400E6FA08E6F98F82758300121C46AB26AA04
:1049F40027A928121C73786D06786AE6D3940040C0
:104A04000116786AE6700818F6786BF6786DF67F0A
:104A14000122E47869F6786BF6786DF6786AF67FA9
:024A240000226E
:0B3E0A007B017A0179B3852F3E7F0415
:063E15008B3B8A3C893D55
:103E1B00EF640370627863E67002FF22E47863F666
:103E2B0008A63E08F6FEEEC3953E5025AB3BAA3CDA
:103E3B00A93D8E82758300121C46FD7866860308A9
:103E4B00E6FA08E6F98E82758300ED121C850E806A
:103E5B00D57865E6FDC3189650197866860308E693
:103E6B00FA08E6F98D82758300121C46F59B78657E
:103E7B0006800478637601EF640470627871E670F3
:103E8B0002FF22E47871F608A63E08F6FEEEC39513
:103E9B003E5025AB3BAA3CA93D8E82758300121C7C
:103EAB0046FF7874860308E6FA08E6F98E82758376
:103EBB0000EF121C850E80D57873E6FFC318965061
:103ECB00197874860308E6FA08E6F98F8275830081
:103EDB00121C46F5997873068004787176017F0180
:013EEB0022B4
:0A0046008E338F348B358A368937EC
:100050009003A9E0753800F539E538FF0534E5343B
:10006000AC337002053314F5828C83EF121C8505C6
:1000700034E534AC337002053314F5828C83E539F2
:10008000121C85E54D700EE54F2410F539E54E3410
:1000900027F5388006854E38854F39E538FFAB3572
:1000A000AA36A9370534E534AC337002053314F5AC
:1000B000828C83EF121C850534E534AC3370020565
:1000C0003314F5828C83E539121C859003AAE0F580
:1000D00038A3E0F539E538FF0534E534AC33700278
:1000E000053314F5828C83EF121C850534E534AC9E
:1000F000337002053314F5828C83E539121C859028
:1001000003ACE0FCA3E0FDA3E0FEA3E0FF78101247
:100110001F5C8E388F39E538FF0534E534AC337019
:1001200002053314F5828C83EF121C850534E53407
:10013000AC337002053314F5828C83E539121C85CB
:100140009003ACA3A3E0FEA3E0FF8E388F39E5381F
:10015000FF0534E534AC337002053314F5828C832B
:10016000EF121C850534E534AC337002053314F509
:10017000828C83E539121C859003B0E0F538A3E04A
:10018000F539E538FF0534E534AC33700205331436
:10019000F5828C83EF121C850534E534AC33700294
:1001A000053314F5828C83E539121C859003D5E064
:1001B0005401753800F539E538FF0534E534AC33C2
:1001C0007002053314F5828C83EF121C850534E52B
:1001D00034AC337002053314F5828C83E539121C7C
:1001E000859003B2E0FCA3E0FDA3E0FEA3E0FF786E
:1001F00010121F5C8E388F39E538FF0534E534ACBA
:10020000337002053314F5828C83EF121C8505349C
:10021000E534AC337002053314F5828C83E5391272
:100220001C859003B2A3A3E0FEA3E0FF8E388F39B4
:10023000E538FF0534E534AC337002053314F5823C
:100240008C83EF121C850534E534AC337002053322
:1002500014F5828C83E539121C859003B6E0F538DD
:10026000A3E0F539E538FF0534E534AC3370020519
:100270003314F5828C83EF121C850534E534AC33DE
:100280007002053314F5828C83E539121C859003C6
:10029000D5E0C3135401753800F539E538FF05344E
:1002A000E534AC337002053314F5828C83EF121CF5
:1002B000850534E534AC337002053314F5828C8344
:1002C000E539121C859003B8E0FCA3E0FDA3E0FE35
:1002D000A3E0FF7810121F5C8E388F39E538FF05D8
:1002E00034E534AC337002053314F5828C83EF129D
:1002F0001C850534E534AC337002053314F5828C6B
:1003000083E539121C859003B8A3A3E0FEA3E0FFA8
:100310008E388F39E538FF0534E534AC337002058B
:100320003314F5828C83EF121C850534E534AC332D
:100330007002053314F5828C83E539121C85900315
:10034000BCE0F538A3E0F539E538FF0534E534AC19
:10035000337002053314F5828C83EF121C8505344B
:10036000E534AC337002053314F5828C83E5391221
:100370001C859003D5E013135401753800F539E559
:1003800038FF0534E534AC337002053314F5828C44
:1003900083EF121C850534E534AC33700205331449
:1003A000F5828C83E539121C859003BEE0F538A3F5
:1003B000E0F539E538FF0534E534AC337002053338
:1003C00014F5828C83EF121C850534E534AC337050
:1003D00002053314F5828C83E539121C859003C025
:1003E000E0F538A3E0F539E538FF0534E534AC3302
:1003F0007002053314F5828C83EF121C850534E5F9
:1004000034AC337002053314F5828C83E539121C49
:10041000859003D5E01313135401753800F539E5C1
:1004200038FF0534E534AC337002053314F5828CA3
:1004300083EF121C850534E534AC337002053314A8
:10044000F5828C83E539121C859003C2E0F538A350
:10045000E0F539E538FF0534E534AC337002053397
:1004600014F5828C83EF121C850534E534AC3370AF
:1004700002053314F5828C83E539121C859003C480
:10048000E0F538A3E0F539E538FF0534E534AC3361
:100490007002053314F5828C83EF121C850534E558
:1004A00034AC337002053314F5828C83E539121CA9
:1004B000859003D5E0C45401753800F539E538FF5F
:1004C0000534E534AC337002053314F5828C83EFC8
:1004D000121C850534E534AC337002053314F58203
:1004E0008C83E539121C859003C6E0F538A3E0F54E
:1004F00039E538FF0534E534AC337002053314F5C3
:10050000828C83EF121C850534E534AC3370020510
:100510003314F5828C83E539121C859003C8E0F50D
:1005200038A3E0F539E538FF0534E534AC33700223
:10053000053314F5828C83EF121C850534E534AC49
:10054000337002053314F5828C83E539121C8590D3
:1005500003D5E0C4135401753800F539E538FF05BB
:1005600034E534AC337002053314F5828C83EF121A
:100570001C850534E534AC337002053314F5828CE8
:1005800083E539121C8590034AE0FCA3E0FDA3E05B
:10059000FEA3E0FF7810121F5C8E388F39E538FF1C
:1005A0000534E534AC337002053314F5828C83EFE7
:1005B000121C850534E534AC337002053314F58222
:1005C0008C83E539121C8590034AA3A3E0FEA3E0C7
:1005D000FF8E388F39E538FF0534E534AC337002CF
:1005E000053314F5828C83EF121C850534E534AC99
:1005F000337002053314F5828C83E539121C859023
:1006000002AFE0FCA3E0FDA3E0FEA3E0FF78101240
:100610001F6F8E388F39E538FF0534E534AC337001
:1006200002053314F5828C83EF121C850534E53402
:10063000AC337002053314F5828C83E539121C85C6
:100640009002AFA3A3E0FEA3E0FF8E388F39E53818
:10065000FF0534E534AC337002053314F5828C8326
:10066000EF121C850534E534AC337002053314F504
:10067000828C83E539121C859003CAE0FFE4FD12E9
:100680004F957538008F39E538FFAB35AA36A93755
:100690000534E534AC337002053314F5828C83EFF6
:1006A000121C850534E534AC337002053314F58231
:1006B0008C83E539121C859003CBE0FFE4FD124FDB
:1006C000957538008F39E538FFAB35AA36A937055F
:1006D00034E534AC337002053314F5828C83EF12A9
:1006E0001C850534E534AC337002053314F5828C77
:1006F00083E539121C859003CCE0FFE4FD124F9591
:100700007538008F39E538FFAB35AA36A93705347F
:10071000E534AC337002053314F5828C83EF121C80
:10072000850534E534AC337002053314F5828C83CF
:10073000E539121C859003CDE0FFE4FD124F95755D
:1007400038008F39E538FFAB35AA36A9370534E5CF
:1007500034AC337002053314F5828C83EF121C85A0
:100760000534E534AC337002053314F5828C83E52F
:1007700039121C859003CEE0FFE4FD124F957538C9
:10078000008F39E538FFAB35AA36A9370534E53493
:10079000AC337002053314F5828C83EF121C85058F
:1007A00034E534AC337002053314F5828C83E539BB
:1007B000121C859003CFE0FFE4FD124F95753800C1
:1007C0008F39E538FFAB35AA36A9370534E534ACA7
:1007D000337002053314F5828C83EF121C850534C7
:1007E000E534AC337002053314F5828C83E539129D
:1007F0001C859003D0E0FFE4FD124F957538008F03
:1008000039E538FFAB35AA36A9370534E534AC33C2
:100810007002053314F5828C83EF121C850534E5D4
:1008200034AC337002053314F5828C83E539121C25
:10083000859003D1E0FFE4FD124F957538008F39A4
:10084000E538FFAB35AA36A9370534E534AC33704B
:1008500002053314F5828C83EF121C850534E534D0
:10086000AC337002053314F5828C83E539121C8594
:100870009003D2E0FFE4FD124F957538008F39E503
:1008800038FFAB35AA36A9370534E534AC337002EE
:10089000053314F5828C83EF121C850534E534ACE6
:1008A000337002053314F5828C83E539121C859070
:1008B00003D3E0FFE4FD124F957538008F39E5381A
:1008C000FFAB35AA36A9370534E534AC33700205E1
:1008D0003314F5828C83EF121C850534E534AC3378
:1008E0007002053314F5828C83E539121C85900360
:1008F000D4E0FFE4FD124F957538008F39E538FFDD
:10090000AB35AA36A9370534E534AC33700205336C
:1009100014F5828C83EF121C850534E534AC3370FA
:1009200002053314F5828C83E539121C85E4F53811
:10093000F539E538FF0534E534AC3370020533147E
:10094000F5828C83EF121C850534E534AC337002DC
:10095000053314F5828C83E539121C859003A7E0DA
:10096000F538A3E0F539E538FF0534E534AC3370EC
:1009700002053314F5828C83EF121C850534E534AF
:10098000AC337002053314F5828C83E539121C8573
:100990009003A3E0FCA3E0FDA3E0FEA3E0FF78103A
:1009A000121F5C8E388F39E538FF0534E534AC33DF
:1009B0007002053314F5828C83EF121C850534E533
:1009C00034AC337002053314F5828C83E539121C84
:1009D000859003A3A3A3E0FEA3E0FF8E388F39E543
:1009E00038FF0534E534AC337002053314F5828CDE
:1009F00083EF121C850534E534AC337002053314E3
:100A0000F5828C83E539121C8590039FE0FCA3E0FE
:100A1000FDA3E0FEA3E0FF7810121F5C8E388F3933
:100A2000E538FF0534E534AC337002053314F58244
:100A30008C83EF121C850534E534AC33700205332A
:100A400014F5828C83E539121C8590039FA3A3E0E3
:100A5000FEA3E0FF8E388F39E538FF0534E534AC6E
:100A6000337002053314F5828C83EF121C85053434
:100A7000E534AC337002053314F5828C83E539021A
:020A80001C85D3
:0A0A82008C338D348B358A368937AA
:100A8C00E4F538F539F53AEFB4280040030213D8F1
:100A9C00900AA3F8282873020B1B0213D8020B35FB
:100AAC00020B58020BD4020C31020C64020C98029B
:100ABC000D14020D71020DA4020DDD020E5D020E6D
:100ACC00BF020EF7020F37020F77020FAF020FF1C2
:100ADC000210310210690210A70210E702111F0266
:100AEC0013D80213D80213D80213D802115F0211C3
:100AFC00950211CB02120102123702126D0212A3DF
:100B0C000212D902130F02134502137A0213AFAF6C
:100B1C00349003A9EFF0435A01AB35AA36A93790AC
:100B2C000004E4121C85020E569003AAE533F0A3D0
:100B3C00E534F0435A019003AAE0AB35AA36A93745
:100B4C00900004121C859003AA020EB79003ACA36C
:100B5C00A3E0FEA3E0FFE4FDFC9003AC121F969013
:100B6C0003ACE0F8A3E0F9A3E0FAA3E0FBC000AE0D
:100B7C0033AF34E4FCFD7810121F83D000EB4FFF31
:100B8C00EA4EFEE94DFDE84CFC9003AC121F964377
:100B9C005A019003ACE0FCA3E0FDA3E0FEA3E0FF50
:100BAC007818121F5CAB35AA36A937900004EF12E7
:100BBC001C859003ACE0FCA3E0FDA3E0FEA3E0FFEA
:100BCC007810121F5C020E569003ACE0FCA3E0FD03
:100BDC00E4FFFEEC9003AC121F969003ACE0F8A37C
:100BEC00E0F9A3E0FAA3E0FBEB4534FFEA4533FE62
:100BFC00E9FDE8FC9003AC121F96435A019003AC3C
:100C0C00E0FCA3E0FDA3E0FEA3E0FF7808121F5C6C
:100C1C00AB35AA36A937900004EF121C859003ACB3
:100C2C00A3A3020EB7C3E53494B8E533940B500F6D
:100C3C009003B0E533F0A3E534F0435A018003751B
:100C4C0038019003B0E0AB35AA36A93790000412F6
:100C5C001C859003B0020EB7D3E5349401E53394B0
:100C6C00005012E5345401FF9003D5E054FE4FF0D0
:100C7C00435A018003753801AB35AA36A937900069
:100C8C0004E4121C859003D5E0020F2F9003B2A34D
:100C9C00A3E0FEA3E0FFE4FDFC9003B2121F9690CC
:100CAC0003B2E0F8A3E0F9A3E0FAA3E0FBC000AEC6
:100CBC0033AF34E4FCFD7810121F83D000EB4FFFF0
:100CCC00EA4EFEE94DFDE84CFC9003B2121F964330
:100CDC005A019003B2E0FCA3E0FDA3E0FEA3E0FF09
:100CEC007818121F5CAB35AA36A937900004EF12A6
:100CFC001C859003B2E0FCA3E0FDA3E0FEA3E0FFA3
:100D0C007810121F5C020E569003B2E0FCA3E0FDBB
:100D1C00E4FFFEEC9003B2121F969003B2E0F8A32E
:100D2C00E0F9A3E0FAA3E0FBEB4534FFEA4533FE20
:100D3C00E9FDE8FC9003B2121F96435A019003B2EE
:100D4C00E0FCA3E0FDA3E0FEA3E0FF7808121F5C2B
:100D5C00AB35AA36A937900004EF121C859003B26C
:100D6C00A3A3020EB7C3E53494B8E533940B500F2C
:100D7C009003B6E533F0A3E534F0435A01800375D4
:100D8C0038019003B6E0AB35AA36A93790000412AF
:100D9C001C859003B6020EB7D3E5349401E5339469
:100DAC00005014E534540125E0FF9003D5E054FDC8
:100DBC004FF0435A018003753801AB35AA36A93779
:100DCC00900004E4121C859003D5E0FFC313020FBE
:100DDC002F9003B8A3A3E0FEA3E0FFE4FDFC900377
:100DEC00B8121F969003B8E0F8A3E0F9A3E0FAA3B9
:100DFC00E0FBC000AE33AF34E4FCFD7810121F836F
:100E0C00D000EB4FFFEA4EFEE94DFDE84CFC9003A1
:100E1C00B8121F96435A019003B8E0FCA3E0FDA35F
:100E2C00E0FEA3E0FF7818121F5CAB35AA36A93799
:100E3C00900004EF121C859003B8E0FCA3E0FDA326
:100E4C00E0FEA3E0FF7810121F5C900005EF021388
:100E5C00EC9003B8E0FCA3E0FDE4FFFEEC9003B8DB
:100E6C00121F969003B8E0F8A3E0F9A3E0FAA3E010
:100E7C00FBEB4534FFEA4533FEE9FDE8FC9003B893
:100E8C00121F96435A019003B8E0FCA3E0FDA3E0C7
:100E9C00FEA3E0FF7808121F5CAB35AA36A9379089
:100EAC000004EF121C859003B8A3A3A3E0900005E7
:100EBC000213ECC3E53494B8E533940B500F900354
:100ECC00BCE533F0A3E534F0435A018003753801D7
:100EDC009003BCE0AB35AA36A937900004121C85F0
:100EEC009003BCA3E09000050213ECD3E53494010D
:100EFC00E53394005016E534540125E025E0FF90CD
:100F0C0003D5E054FB4FF0435A018003753801AB15
:100F1C0035AA36A937900004E4121C859003D5E05D
:100F2C00FF131354019000050213ECAE33AF34E4FD
:100F3C00FCFD7B507AC3F9F8C3121F35400F9003A8
:100F4C00BEE533F0A3E534F0435A01800375380154
:100F5C009003BEE0AB35AA36A937900004121C856D
:100F6C009003BEA3E09000050213ECD3E53494B8D3
:100F7C00E533940B500F9003C0E533F0A3E534F048
:100F8C00435A0180037538019003C0E0AB35AA3693
:100F9C00A937900004121C859003C0A3E0900005B3
:100FAC000213ECD3E5349401E53394005017E53487
:100FBC00540133333354F8FF9003D5E054F74FF01A
:100FCC00435A018003753801AB35AA36A937900016
:100FDC0004E4121C859003D5E0FF13131354019005
:100FEC0000050213ECAE33AF34E4FCFD7B507AC346
:100FFC00F9F8C3121F35400F9003C2E533F0A3E597
:10100C0034F0435A0180037538019003C2E0AB35CC
:10101C00AA36A937900004121C859003C2A3E09055
:10102C0000050213ECD3E53494B8E533940B500F60
:10103C009003C4E533F0A3E534F0435A0180037503
:10104C0038019003C4E0AB35AA36A93790000412DE
:10105C001C859003C4A3E09000050213ECD3E53487
:10106C009401E53394005015E5345401C454F0FF59
:10107C009003D5E054EF4FF0435A018003753801CB
:10108C00AB35AA36A937900004E4121C859003D521
:10109C00E0FFC454019000050213ECAE33AF34E40E
:1010AC00FCFD7B507AC3F9F8C3121F35400F900337
:1010BC00C6E533F0A3E534F0435A018003753801DB
:1010CC009003C6E0AB35AA36A937900004121C85F4
:1010DC009003C6A3E09000050213ECD3E53494B85A
:1010EC00E533940B500F9003C8E533F0A3E534F0CF
:1010FC00435A0180037538019003C8E0AB35AA361A
:10110C00A937900004121C859003C8A3E090000539
:10111C000213ECD3E5349401E53394005016E53416
:10112C005401C43354E0FF9003D5E054DF4FF04337
:10113C005A018003753801AB35AA36A937900004E3
:10114C00E4121C859003D5E0FFC4135401900005F4
:10115C000213ECD3E5349409E53394005011AF3409
:10116C007D01124F959003CAEFF0435A018003752D
:10117C003801AB35AA36A937900004E4121C8590CF
:10118C0003CAE09000050213ECD3E5349409E5336F
:10119C0094005011AF347D01124F959003CBEFF0BA
:1011AC00435A018003753801AB35AA36A937900034
:1011BC0004E4121C859003CBE09000050213ECD3E1
:1011CC00E5349409E53394005011AF347D01124F8E
:1011DC00959003CCEFF0435A018003753801AB3581
:1011EC00AA36A937900004E4121C859003CCE09039
:1011FC0000050213ECD3E5349409E5339400501147
:10120C00AF347D01124F959003CDEFF0435A01801E
:10121C0003753801AB35AA36A937900004E4121CCB
:10122C00859003CDE09000050213ECD3E5349409CE
:10123C00E53394005011AF347D01124F959003CEDD
:10124C00EFF0435A018003753801AB35AA36A93744
:10125C00900004E4121C859003CEE090000502136C
:10126C00ECD3E5349409E53394005011AF347D018F
:10127C00124F959003CFEFF0435A0180037538015C
:10128C00AB35AA36A937900004E4121C859003CF25
:10129C00E09000050213ECD3E5349409E533940097
:1012AC005011AF347D01124F959003D0EFF0435A9B
:1012BC00018003753801AB35AA36A937900004E4D8
:1012CC00121C859003D0E09000050213ECD3E5349A
:1012DC009409E53394005011AF347D01124F959071
:1012EC0003D1EFF0435A018003753801AB35AA36B0
:1012FC00A937900004E4121C859003D1E0900005FE
:10130C000213ECD3E5349409E53394005011AF3457
:10131C007D01124F959003D2EFF0435A0180037573
:10132C003801AB35AA36A937900004E4121C85901D
:10133C0003D2E09000050213ECD3E5349409E533B5
:10134C0094005011AF347D01124F959003D3EFF000
:10135C00435A018003753801AB35AA36A937900082
:10136C0004E4121C859003D3E09000058072D3E551
:10137C00349409E53394005011AF347D01124F952C
:10138C009003D4EFF0435A018003753801AB35AAB2
:10139C0036A937900004E4121C859003D4E0900029
:1013AC0005803DE534640145337008124098435A7A
:1013BC00038003753801AB35AA36A937900004E4D5
:1013CC00121C859003D4E09000058014753801AB95
:1013DC0035AA36A937900004E4121C85900005E468
:1013EC00121C85E538701C7B017A0179B37D06FCF3
:1013FC00124A268E398F3A9001B9EFF0E539A3F0F5
:10140C007F08229001B4740EF0A37401F0FB7A01F2
:10141C0079B37D037C00124A268E398F3A9001B63F
:08142C00EFF0E539A3F07F05A4
:011434002295
:062AEA008B268A278928D3
:102AF000E4F532FE7F96FD7B017A0179B3121FD394
:102B0000AB26AA27A928121C2DFF9003A9E0FE6F6F
:102B10006006EF6003022CEB9001B3EEF090000131
:102B2000121C469001B4F064036003022C50AB26E3
:102B3000AA27A928900002121C46FE900003121C2E
:102B4000467C002400F52AEC3EF529900004121C76
:102B500046FE900005121C462400F52CEC3EF52B99
:102B6000C37446952AFFE49529FEC3E52C9FE52B07
:102B70009E4003022C1FC3E52A9446E52994004099
:102B800003022C1F7B017A0179B37F037E001200C0
:102B900046E52C25E09001B5F0E4F532E52C25E082
:102BA000FFE52B33FEAD327C00C3ED9FEC9E502C35
:102BB000E52A25E0FFE52933FEEF2DFFEC3EFE740C
:102BC000B62FF58274013EF583E0FF74B62532F529
:102BD00082E43401F583EFF0053280C0E52C25E076
:102BE0002403F52F7B017A0179B3FD7C00124A267C
:102BF0008E308F31E52C25E0FBE52B33FA74B62BB4
:102C0000F58274013AF583E531F0E530FF74B72BB6
:102C1000F58274013AF583EFF0052F052F80269099
:102C200001B4740BF0A37401F0FB7A0179B37D0356
:102C30007C00124A268E308F319001B6EFF0E530DD
:102C4000A3F0752F05123E0AEF6003022CEB80F50E
:102C5000AB26AA27A928900001121C46640660032F
:102C6000022CEB900002121C46FE900003121C4640
:102C70007C002400F52AEC3EF529900004121C4645
:102C8000FE900005121C462400F52EEC3EF52D901A
:102C90000002121C469001B5F0900003121C4690F1
:102CA00001B6F0C3E52A9446E52994004026900138
:102CB000B4740EF0A37401F0FB7A0179B37D0312B2
:102CC0004A268E308F319001B6EFF0E530A3F075D3
:102CD0002F058011AF2A7B017A0179B3AD2EAC2D7F
:0B2CE000120A828F2F123E0AEF60FAEA
:012CEB0022C6
:024376008F2294
:10437800E4F524F525125117EF7003024421803A21
:104388007B007A0079237D021249C4EF640160033F
:1043980002441CE51F146005047024800BE52364A7
:1043A800036005E523B406127400251FF582E43482
:1043B80000F583E523F0051F80C6E4F51F80C1E5FD
:1043C8001FC3940850BA7400251FF582E43400F521
:1043D80083E523F0051FE51FC3940840A3E4F51FF8
:1043E8007B017A0079007D06FC124A268E248F25EF
:1043F800900006E06F7001E47086E524FFA3E06F8B
:104408007001E460030243887B017A007900122A74
:09441800EA024388AF22124EB201
:014421002278
:10322D0041540D0A004F4B0D0A0041542B43504998
:10323D004E3F0D0A0052454144590041542B435213
:10324D0045473F0D0A003100350041542B4950527E
:10325D003D393630300D0A00415426570D0A0041D4
:10326D00542B51474E5353433F0D0A002B51474E9C
:10327D005353433A20300041542B51474E5353433F
:10328D003D310D0A0041542B435343533D224753C7
:10329D004D220D0A0041542B434E4D493D322C31E8
:1032AD000D0A0041542B434D47463D310D0A004157
:1032BD00542B435344483D300D0A0041542B435089
:1032CD004D533F0D0A0041542B434D47443D312C86
:1032DD00340D0A003E0041542B51474E5353524476
:1032ED003D224E4D45412F474741220D0A002C00EE
:1032FD001A00676574206C6F636174696F6E0000EE
:10330D00000000000000676574206261636B7570DA
:10331D00000000000000000000006D6F746F72006F
:10332D000000000000000000000000000000496ED9
:10333D0076616C696420636F6D6D616E6421000050
:10334D0000004C6F63617465206661696C2100003B
:10335D00000000000000475053206661696C210099
:10336D000000000000000000000073746172742002
:10337D006F6B21000000000000000000000073745E
:10338D00617274206661696C21000000000000000C
:02339D0000002E
:103A92004D026941542B434D47523D2020202020A6
:103AA2005A033041542B434D47533D2220202020BE
:103AB20020202020202020220D0A00000054025540
:103AC20020202020202020202020202020202020F4
:103AD20020200000011D00011C03011E0001100036
:103AE2000111000112000113000414000000000182
:0D3AF2001800011900011A00C108011B0095
:1050FE007E007F967D007B017A0079A5121FD3E496
:09510E00785CF618F6785DF622D3
:0942C80075360A7BFF7A32794851
:0642D1008B2F8A308931B9
:1042D700E4F537F538AB2FAA30A9318537827583D6
:1042E70000121C46600905370538E538B43CE67E00
:1042F700007F967D007B017A00790F121FD3E4F5CA
:10430700381250FEAB2FAA30A93185373E7F0312F2
:104317003E15EF60EFE4F539AF36AE351251B6858D
:10432700323D85333E85343F7B017A0079A51247BC
:104337001DE94A4B6024E4FF74A52FF582E434009D
:10434700F583E0FE740F2FF582E43400F583EEF079
:104357000FBF96E41250FE7F01220539E539C39459
:0E4367000640B50538E538C3940240957F0046
:014375002225
:10495D00E4F523FF1250E47F907E011251B67F01E2
:10496D001250E47FC87E001251B67D107F01124EA9
:10497D00237F607E091251B6E4F5227532FF75333F
:10498D003275343275350075360A7BFF7A32792DE2
:10499D001242D1BF010205230522E522C394044032
:1049AD00DA7D107F01124CCFE523D3940250077F9F
:0649BD00087E0012000359
:0149C30022D1
:104AD5007532FF75333275344275350075360A7B8C
:104AE500FF7A3279371242D1EF6401702E7532FFA9
:104AF500753332753453F5351242C8BF0102801241
:104B05007532FF7533327534557535001242C8BF9D
:104B150001077F407E0002000E80007F407E00126C
:034B250000032268
:104C46007532FF75333275343275350075360A7B29
:104C5600FF7A3279571242D1BF011F7532FF753381
:104C66003275343275350075360A7BFF7A327965CE
:104C76001242D17F207E0002000E7F207E001200AD
:024C8600032207
:104C88007532FF75333275347975350075360A7BA0
:104C9800FF7A32796C1242D1BF01247532FF753325
:104CA8003275343275350075360A7BFF7A3279846D
:104CB8001242D1EF640160077F087E0012000322D0
:103EEC0090030A7402F090032A74FFF0A37433F069
:103EFC00A3743BF0A37401F0A37403F0A374CAF091
:103F0C00781F7C037D017B017A03F97E007F0B1205
:103F1C001C077E007F147D307B017A03790B121F06
:103F2C00D37F107E0012000E7532FF75333275345C
:103F3C003275350075360A7BFF7A3279921242D18E
:103F4C00EF640160077F107E001200037532FF756D
:103F5C00333275343275350075360A7BFF7A327917
:103F6C00A21242D1EF640160077F107E00120003A1
:103F7C007532FF75333275343275350075360A7B00
:103F8C00FF7A3279B01242D1EF640160077F107E64
:103F9C00001200037532FF753332753432753500FB
:103FAC0075360A7BFF7A3279BC1242D1EF6401601C
:093FBC00077F107E0012000322B1
:10421700E510C39496500505107F0022E4F510754C
:1042270032FF75333275343275350075360A7BFFC8
:104237007A3279C81242D1EF6401707BF523740F8B
:104247002523F582E43400F583E0640D7060741073
:104257002523F582E43400F583E0640A7050741E68
:104267002523F582E43400F583E0FF642C603C7479
:104277001D2523F582E43400F583E0FEB43406EF10
:10428700D394355005EE643570217532FF7533329E
:1042970075343275350075360A7BFF7A3279D31259
:1042A70042D1BF01037F01227F00227F0122052324
:1042B700E523C3949640877F107E001200037F009A
:0142C70022D4
:06479F008B238A2489250A
:1047A500E4F5297532FF7533327534E175350075D9
:1047B500360AAB26AA27A9281242D1EF6401704018
:1047C500852332852433852534753501753690ABBF
:1047D50023AA24A9251242D1BF01257532FF7533BD
:1047E500327534327535017536907BFF7A3279FD35
:1047F5001242D1BF010A7F107E0012000E7F0122F6
:104805000529E529C39403409A7F107E0012000311
:024815007F0022
:01481700227E
:1034FD00E4F524F525785BE6640360037F002290F4
:10350D0000A7E0642B600302364DA3E06443600323
:10351D0002364DA3E0644D600302364DA3E06454C2
:10352D00600302364DA3E06449600302364D9000FE
:10353D00B4E0FFB40D0EA3E0B40A099000B3E0901F
:10354D00027180169000B5E0B40D1BA3E0B40A160D
:10355D009000B3E0900271F0A3EFF0A3740DF0A30F
:10356D00740AF0E4A3F07532FF7533327534327599
:10357D00350075360A7B017A0279691242D1EF6402
:10358D0001600302364AFE7F14FD7B017A03790B3D
:10359D00121FD37E007F0B7D007B017A03791F12F2
:1035AD001FD3E4F523740F2523F582E43400F5834E
:1035BD00E0642B703674102523F582E43400F58316
:1035CD00E0B4382774112523F582E43400F583E047
:1035DD00B436187E0074122523F9EE3400FA7B01FF
:1035ED00781F7C037D017F0B121C07740F2523F5BB
:1035FD0082E43400F583E0640D703774102523F5F3
:10360D0082E43400F583E0640A70270525E525B4CE
:10361D0002207E0074112523F9EE3400FA7B017827
:10362D000B7C037D017F14121C07E490031EF07FB9
:10363D0001220523E523649660030235B27F022241
:02364D007F00FC
:01364F002258
:102EEC009002B37430F0A3743AF07E007F037D300F
:102EFC007B017A0279B5121FD39002B7742EF07E43
:102F0C00007F067D307B017A0279B8121FD39002C4
:102F1C00BE740AF0A37430F0A3743AF07E007F0400
:102F2C007D307B017A0279C1121FD39002C4742EBA
:102F3C00F07E007F067D307B017A0279C5121FD3AB
:102F4C009002CB740AF09002D77448F0A3743AF054
:102F5C007E007F077D307B017A0279D9121FD390D6
:102F6C0002E0740AF09002CC7453F0A3743AF0A30C
:102F7C007430F0A3740AF0A37450F0A3743AF07E8A
:102F8C00007F047D307B017A0279D2121FD390022C
:102F9C00D6740AF09002E17454F0A3743AF07E00F7
:102FAC007F047D307B017A0279E3121FD39002E714
:102FBC00740AF0A37442F0A3743AF07E007F047D8F
:102FCC00307B017A0279EA121FD3E49002EEF0A36F
:102FDC00121FA2000000009002F3121FA2000000BA
:102FEC00009002F7121FA2000000007E007F0F7DF0
:102FFC00007B017A0279FB121FD3787A7C027D0167
:10300C007B017A0279B37E007F0C121C0778867CD8
:10301C00027D017B017A0279BF7E007F0D121C07B5
:10302C0078937C027D017B017A0279CC7E007F044F
:10303C00121C0778977C027D017B017A0279D77E7E
:10304C00007F0A121C0778A17C027D017B017A02A9
:10305C0079E17E007F07121C0778A87C027D017B3A
:10306C00017A0279E87E007F06121C079002F7E0D5
:10307C00FCA3E0FDA3E0FEA3E0FF9002AF121F96BD
:09308C009002EEE09002AEF02289
:0D339F00E0FCA3E0FDA3E0FEA3E0FF7B0146
:1033AC008F388E378D368C358B398A3A893B7BA09A
:1033BC007A8679017800121E957D01124F95AB39F2
:1033CC00AA3AA93BEF121C73AF38AE37AD36AC3509
:1033DC007BA07A8679017800121E95AC00AD01AE07
:1033EC0002AF038F388E378D368C35E47B107A27FD
:1033FC00F9F8121E957D01124F95AB39AA3AA93BEB
:10340C00900001EF121C85AF38AE37AD36AC35E409
:10341C007B107A27F9F8121E95AC00AD01AE02AF05
:10342C00038F388E378D368C35E47BE87A03F9F8C8
:10343C00121E957D01124F95AB39AA3AA93B90000B
:10344C0002EF121C85AF38AE37AD36AC35E47BE8F5
:10345C007A03F9F8121E95AC00AD01AE02AF038FE2
:10346C00388E378D368C35E47B64FAF9F8121E955C
:10347C007D01124F95AB39AA3AA93B900003EF128C
:10348C001C85AF38AE37AD36AC35E47B64FAF9F851
:10349C00121E95AC00AD01AE02AF038F388E378D86
:1034AC00368C35E47B0AFAF9F8121E957D01124F21
:1034BC0095AB39AA3AA93B900004EF121C85AF38A2
:1034CC00AE37AD36AC35E47B0AFAF9F8121E95AC82
:1034DC0000AD01AE02AF038F388E378D368C357D43
:1034EC0001124F95AB39AA3AA93B900005EF021C8B
:0134FC00854A
:044D7F00E0FFE4FD70
:104D8300ED701BEFC39430400CEFD394395006C33E
:104D9300EF9430FF22BD2D1A751D017F0022BD0146
:104DA30011EFC39400400BEFD394095005EF243067
:054DB300FF227F202219
:081435008F2F8B308A318932C0
:10143D00E533D394005003021B36E533D3940F40AC
:10144D0003021B367E007F0F7D007B017A0279FB44
:10145D00121FD3AF337E0078FB7C027D01AB30AA27
:10146D0031A932121C07E52F24FDB40800400302F8
:10147D001B3690148D75F003A4C58325F0C58373B9
:10148D000214A50216F80217010219590219620277
:10149D001B3602196B0219979002EF121FA2000062
:1014AD000000E4F534E534C395334003021B36E503
:1014BD0034B4090040030216F39014CDF8282873B4
:1014CD000214E80214E80215070215530216F3027E
:1014DD00159D0215E702162E02167D800074FB2560
:1014ED0034F582E43402F583E0FF74B52534F582DA
:1014FD00E43402F583EFF00216F39002EFE0F8A367
:10150D00E0F9A3E0FAA3E0FBC000C001C002C003F4
:10151D0074FB2534F582E43402F583E0FFE4FD121B
:10152D004F95E4FCFDFE7BA07A867901F8121E0A28
:10153D00D003D002D001D000EB2FFFEA3EFEE93DF3
:10154D00FDE83C0216739002EFE0F8A3E0F9A3E08A
:10155D00FAA3E0FBC000C001C002C00374FB253438
:10156D00F582E43402F583E0FFE4FD124F957E0031
:10157D007C277D10121CA7E4FCFDD003D002D00106
:10158D00D000EB2FFFEA3EFEED39FDEC380216736D
:10159D009002EFE0F8A3E0F9A3E0FAA3E0FBC000AE
:1015AD00C001C002C00374FB2534F582E43402F59A
:1015BD0083E0FFE4FD124F957E007C037DE8121C55
:1015CD00A7E4FCFDD003D002D001D000EB2FFFEA41
:1015DD003EFEED39FDEC380216739002EFE0F8A3F4
:1015ED00E0F9A3E0FAA3E0FBC000C001C002C00314
:1015FD0074FB2534F582E43402F583E0FFE4FD123B
:10160D004F95EF75F064A4FFE4FCFDD003D002D03C
:10161D0001D000EB2FFFEA35F0FEED39FDEC3880FF
:10162D00459002EFE0F8A3E0F9A3E0FAA3E0FBC0D8
:10163D0000C001C002C00374FB2534F582E43402FE
:10164D00F583E0FFE4FD124F95EF75F00AA4FFE47A
:10165D00FCFDD003D002D001D000EB2FFFEA35F016
:10166D00FEED39FDEC38FC9002EF121F960216F3D9
:10167D009002EFE0F8A3E0F9A3E0FAA3E0FBC000CD
:10168D00C001C002C00374FB2534F582E43402F5B9
:10169D0083E0FFE4FD124F95E4FCFDFED003D00284
:1016AD00D001D000EB2FFFEE3AFEED39FDEC38FC0A
:1016BD009002EF121F96E47F64FEFDFC9002EFE0B6
:1016CD00F8A3E0F9A3E0FAA3E0FB121E0AE47B3CC9
:1016DD00FAF9F8121E959002EF121F969002EF7A0A
:1016ED000279B812339F05340214B29002FBE090D8
:1016FD0002B3F0229002F3121FA200000000E4F5E5
:10170D0034E534C395334003021B36E534B40A0087
:10171D004003021954901729F8282873021747021D
:10172D00174902174B0217680217B4021954021712
:10173D00FE02184802188F0218DE8002800074FB2A
:10174D002534F582E43402F583E0FF74C12534F5C8
:10175D0082E43402F583EFF00219549002F3E0F8BD
:10176D00A3E0F9A3E0FAA3E0FBC000C001C002C0F2
:10177D000374FB2534F582E43402F583E0FFE4FDC8
:10178D00124F95E4FCFDFE7BA07A867901F8121EBE
:10179D000AD003D002D001D000EB2FFFEA3EFEE9C4
:1017AD003DFDE83C0218D49002F3E0F8A3E0F9A364
:1017BD00E0FAA3E0FBC000C001C002C00374FB252A
:1017CD0034F582E43402F583E0FFE4FD124F957E9B
:1017DD00007C277D10121CA7E4FCFDD003D002D0A5
:1017ED0001D000EB2FFFEA3EFEED39FDEC3802187B
:1017FD00D49002F3E0F8A3E0F9A3E0FAA3E0FBC074
:10180D0000C001C002C00374FB2534F582E434022C
:10181D00F583E0FFE4FD124F957E007C037DE81219
:10182D001CA7E4FCFDD003D002D001D000EB2FFFAC
:10183D00EA3EFEED39FDEC380218D49002F3E0F8E3
:10184D00A3E0F9A3E0FAA3E0FBC000C001C002C011
:10185D000374FB2534F582E43402F583E0FFE4FDE7
:10186D00124F95EF75F064A4FFE4FCFDD003D00298
:10187D00D001D000EB2FFFEA35F0FEED39FDEC384D
:10188D0080459002F3E0F8A3E0F9A3E0FAA3E0FBB2
:10189D00C000C001C002C00374FB2534F582E434DE
:1018AD0002F583E0FFE4FD124F95EF75F00AA4FFFA
:1018BD00E4FCFDD003D002D001D000EB2FFFEA35C0
:1018CD00F0FEED39FDEC38FC9002F3121F96021973
:1018DD00549002F3E0F8A3E0F9A3E0FAA3E0FBC013
:1018ED0000C001C002C00374FB2534F582E434024C
:1018FD00F583E0FFE4FD124F95E4FCFDFED003D02F
:10190D0002D001D000EB2FFFEE3AFEED39FDEC38A1
:10191D00FC9002F3121F96E47F64FEFDFC9002F32F
:10192D00E0F8A3E0F9A3E0FAA3E0FB121E0AE47BC2
:10193D003CFAF9F8121E959002F3121F969002F3DD
:10194D007A0279C512339F053402170E9002FBE01F
:10195D009002BFF0229002FBE09002CEF022E53320
:10196D00D394045012AF337E0078D27C027D017B7C
:10197D00017A0279FB801078D27C027D017B017A9D
:10198D000279FB7E007F04021C077E007F077D30FD
:10199D007B017A0279D9121FD3E533D39407400323
:1019AD00021B369002F7121FA200000000E4F5346E
:1019BD00E534C395335030AF347E00C3E5339FFD1E
:1019CD00E49EFC74FA2DF58274023CF583E0FDC3B0
:1019DD0074079FFFE49EFE74D82FF58274023EF5C6
:1019ED0083EDF0053480C99002F7E0F8A3E0F9A388
:1019FD00E0FAA3E0FBC000C001C002C0039002D911
:101A0D00124D7F7E007C277D10121CA7E4FCFDD0BB
:101A1D0003D002D001D000EB2FFFEA3EFEED39FDE1
:101A2D00EC38FC9002F7121F969002F7E0F8A3E055
:101A3D00F9A3E0FAA3E0FBC000C001C002C003900F
:101A4D0002DA124D7F7E007C037DE8121CA7E4FCB8
:101A5D00FDD003D002D001D000EB2FFFEA3EFEED0A
:101A6D0039FDEC38FC9002F7121F969002F7E0F862
:101A7D00A3E0F9A3E0FAA3E0FBC001C002C003900C
:101A8D0002DB124D7FEF75F064A4FFE4FCD003D0B0
:101A9D0002D001EB2FFFEA35F0FEED39FDEC38FCFD
:101AAD009002F7121F969002F7E0F8A3E0F9A3E079
:101ABD00FAA3E0FBC001C002C0039002DC124D7F0F
:101ACD00EF75F00AA4FFE4FCD003D002D001EB2F98
:101ADD00FFEA35F0FEED39FDEC38FC9002F7121FF0
:101AED00969002F7E0F8A3E0F9A3E0FAA3E0FB90EB
:101AFD0002DD124D7FE4FCFEEB2FFFEE3AFEED39D9
:101B0D00FDEC38FC9002F7121F96E51DB4011AE4A6
:101B1D00F51D9002F7E0FCA3E0FDA3E0FEA3E0FFBE
:091B2D00121F279002F7121F9607
:011B3600228C
:1026A400E4F52DF52E7532FF753332753432F53578
:1026B40075360A7BFF7A3279E31242D1EF64016006
:1026C400030228DB753DFF753E32753FFB7B017AC3
:1026D40000790F12471DE94A4B7002FF227B017AF1
:1026E40000790F8B278A2889298B2A8A2B892CE445
:1026F400F526740F2526F582E43400F583E0642C76
:10270400703885272A85282B85292C74102526F9CD
:10271400E43400752701F5288929AE01C3EE952C10
:1027240014F52E052DE52DD3940A5017AB2AAA2BA8
:10273400A92C852E33AF2D1214350526E526C39416
:102744009640AF9002CEE0B430037F032290024D56
:10275400E0FCA3E0FDA3E0FEA3E0FF900249121F0A
:1027640096900251E0FCA3E0FDA3E0FEA3E0FF90FD
:10277400024D121F969002F7E0FCA3E0FDA3E0FED9
:10278400A3E0FF900251121F9690024DE0FCA3E0DB
:10279400FDA3E0FEA3E0FF900249E0F8A3E0F9A363
:1027A400E0FAA3E0FBC3121F35404A900251E0FC5B
:1027B400A3E0FDA3E0FEA3E0FF900249E0F8A3A399
:1027C400A3E0121F35402E900251E0FCA3E0FDA3CC
:1027D400E0FEA3E0FF90024DE0F8A3E0F9A3E0FAE5
:1027E400A3E0FBD3121F35400690024D0228C79088
:1027F40002510228C7900249E0FCA3E0FDA3E0FED9
:10280400A3E0FFA3E0F8A3E0F9A3E0FAA3E0FBC38D
:10281400121F354048900251E0FCA3E0FDA3E0FE06
:10282400A3E0FF90024DE0F8A3A3A3E0121F3540FC
:102834002C900251E0FCA3E0FDA3E0FEA3E0FF9096
:102844000249E0F8A3E0F9A3E0FAA3E0FBD3121FE6
:1028540035400590024980039002518066900249F8
:10286400E0FCA3E0FDA3E0FEA3E0FF900251E0F84A
:10287400A3E0F9A3E0FAA3E0FBC3121F354055908F
:10288400024DE0FCA3E0FDA3E0FEA3E0FFA3E0F81B
:10289400A3A3A3E0121F35403B90024DE0FCA3E04C
:1028A400FDA3E0FEA3E0FF900249E0F8A3E0F9A352
:1028B400E0FAA3E0FBD3121F3540059002498003E0
:1028C40090024DE0FCA3E0FDA3E0FEA3E0FF900234
:0928D400F7121F967F01227F001C
:0128DD0022D8
:1050CA007F087E0012518EEF700F124C46124AD59D
:0A50DA00122EEC124C88123EEC225C
:064EE0008B238A248925C2
:104EE600E4FFAB23AA24A9258F82758300121C46F2
:104EF600FE74392FF582E43403F583EEF00FBF0B11
:074F0600E17B017A03793021
:014F0D002281
:1023BB00E4F523F524F525753DFF753E32753FFF9A
:1023CB007B017A03790B12471DE94A4B603F1226BA
:1023DB00A48F23E523B4011190032A7401F0A37495
:1023EB0002F0A374B3F002268FE52390032AB40303
:1023FB000E74FFF0A37433F0A3744FF002268F74A6
:10240B00FFF0A37433F0A37463F002268F753DFFC6
:10241B00753E33753F137B017A03790B12471DE928
:10242B004A4B601190032A7401F0A37402F0A37459
:10243B007AF002268F753DFF753E33753F277B0182
:10244B007A03790B12471DE94A4B700302268190E0
:10245B000310E06420600302265E900314E0FFE4A7
:10246B00FD124F95EF64206042900313E0FFE4FDF3
:10247B00124F95EF64206033900311E0FFE4FD12DF
:10248B004F95900276EFF0900312E0FFE4FD124FB0
:10249B0095900277EFF0900313E0FFE4FD124F9558
:1024AB00900278EFF0900314022550900313E0FF95
:1024BB00E4FD124F95EF64206037900312E0FFE4C8
:1024CB00FD124F95EF64206028E4900276F09003A4
:1024DB0011E0FFE4FD124F95900277EFF09003129D
:1024EB00E0FFE4FD124F95900278EFF0900313801C
:1024FB0054900312E0FFE4FD124F95EF6420602A25
:10250B00900311E0FFE4FD124F95EF6420601BE494
:10251B00900276F0A3F0900311E0FFE4FD124F95CB
:10252B00900278EFF0900312801B900311E0FFE410
:10253B00FD124F95EF6420601AE4900276F0A3F041
:10254B00A3F0900311E0FFE4FD124F95900279EF99
:10255B00F0800BE4900276F0A3F0A3F0A3F09002CE
:10256B0076E0FF7E007C037DE8121CA790035DEEF6
:10257B00F0A3EFF0900277E075F064A4FFAEF0905B
:10258B00035EE02FF090035DE03EF0900278E07583
:10259B00F00AA4FFAEF090035EE02FF090035DE035
:1025AB003EF0900279E0FF90035EE02FF090035D28
:1025BB00E03400F0D3A3E0945890035DE094024024
:1025CB000302265E78557C027D017BFF7A33797797
:1025DB007E007F14121C0790025E7420F090035D46
:1025EB00E0F524A3E0F525AE24AF257C007D641235
:1025FB001CB97D01124F9590025FEFF0AE24AF2511
:10260B007C007D64121CB98C248D25AE24AF257CF7
:10261B00007D0A121CB97D01124F95900260EFF0FC
:10262B00AE24AF257C007D0A121CB98C248D25AFFE
:10263B00257D01124F95900261EFF0A37473F0E4C6
:10264B00A3F0D20690032A04F0A37402F0A37455EE
:10265B00F0803190032A74FFF0A37433F0A3748BD2
:10266B00F0E490035DF0A3F0C20690039B121FA24F
:10267B0000000000800E90032A74FFF0A37433F067
:10268B00A3743BF090032D7401F0A37403F0A374B7
:08269B001FF090030A7401F026
:0126A3002214
:103D15001226A4EF64016003023DE0E5172478FF55
:103D2500E43516FEE43515FDE43514FC9002F7E0A4
:103D3500F8A3E0F9A3E0FAA3E0FBD3121F35403066
:103D45000511E511940240237511029002EA74559C
:103D5500F0A37470F0A37420F0A3F0E4F51CE51350
:103D65009403500405138003751E01E4F512806663
:103D75009002F7E0FCA3E0FDA3E0FEA3E02478FFBA
:103D8500E43EFEE43DFDE43CFCAB17AA16A915A8EC
:103D950014D3121F3540250512E5129402401875FB
:103DA50012029002EA7444F0A3746FF0A37477F0E2
:103DB500A3746EF0751C01E4F511801A9002EA7483
:103DC50050F0A37461F0A37472F0A37461F0751CD4
:103DD50002E4F511F5129002F780179002EA743F9C
:103DE500F0A3F0A3F0A3F0751C03E4F511F5129010
:103DF50002AFE0FCA3E0FDA3E0FEA3E0F5178E16FD
:043E05008D158C1477
:013E09002296
:10309500E51AC394145003051A22E4F51AE47FB027
:1030A5007E04FDFC9002AFE0F8A3E0F9A3E0FAA3EB
:1030B500E0FBC3121F355028E47F487E03FDFC90DA
:1030C50002AFE0F8A3A3A3E0121F354013E51830C3
:1030D500E20302317E4318045318FE5318FD80683D
:1030E500E47F587E02FDFC9002AFE0F8A3E0F9A36F
:1030F500E0FAA3E0FBC3121F355025E47F547E019F
:10310500FDFC9002AFE0F8A3A3A3E0121F35401029
:10311500E51820E1644318025318FE5318FB802874
:10312500E47F64FEFDFC9002AFE0F8A3E0F9A3E0C4
:10313500FAA3E0FBC3121F355013E51820E03A430C
:1031450018015318FD5318FB5318F78029E47FF431
:103155007E01FDFC9002AFE0F8A3E0F9A3E0FAA33D
:10316500E0FBC3121F355011E51EB4010CE51C60D0
:1031750008200805D208431810E47F407E06FDFCB0
:103185009002AFE0F8A3E0F9A3E0FAA3E0FBC312D5
:103195001F355024E51C6402701EE51820E319E56F
:1031A5001EB401140519E519D394E1400EE4F5198F
:1031B5004318084318108003E4F519E47F307E07AF
:1031C500FDFC9002AFE0F8A3E0F9A3E0FAA3E0FB71
:1031D500D3121F354003E4F518E51830E4495318B8
:1031E500EFE51C604264016005E51CB4020F900325
:1031F5002A7401F0A37402F0A374B38017E51CB41C
:103205000325E51EB4012090032A7401F0A374027E
:10321500F0A3747AF0A37401F0A37403F0A374CA45
:07322500F090030A7401F0B0
:01322C00227F
:1050E4008F24E524B401077D407F10024E23E5247C
:0A50F40070077D407F10124CCF22A0
:023B15008F22FD
:103B1700125117EF7003023C1B1234FDBF0106124E
:103B270023BB023BE4051BE51BC3944B4009E4F5AB
:103B37001B123D15023BE1E51B75F00584E5F060BE
:103B470003023BE11226A4EF64016014E4F51B9025
:103B570002EA743FF0A3F0A3F0A3F0751C03807A88
:103B6700E51BD394194073787A7C027D017B017A37
:103B77000279B37E007F0C121C0778867C027D01D8
:103B87007B017A0279BF7E007F0D121C0778937C38
:103B9700027D017B017A0279CC7E007F04121C072B
:103BA70078977C027D017B017A0279D77E007F0AB4
:103BB700121C0778A87C027D017B017A0279E87ED6
:103BC700007F06121C079002F7E0FCA3E0FDA3E0CC
:103BD700FEA3E0FF9002AF121F9612309590030AE2
:103BE700E0B4012890032DE0FBA3E0FAA3E0F9126B
:103BF7004EE08B268A27892890032AE0FBA3E0FA68
:103C0700A3E0F912479F90030A7402F0124217AF1C
:043C170022124EB275
:013C1B002286
:103AFF00024E0000014D00014900014A00014B0038
:053B0F00014C00C1099A
:104FC100E4F525C2837F4A7E0112516CD2837F2A88
:104FD1007E0012516C7D087F01124BBD8F257FA58C
:094FE1007E0012516CD283AF2551
:014FEA0022A4
:024DB8008F2545
:104DBA00E4F526C283E4FFFE12516CE52530E004D7
:104DCA00D2838002C2837F257E0012516CD283E493
:104DDA00FFFE12516CE525C313F5250526E526C30A
:044DEA00940840CF1A
:014DEE0022A2
:104B7400E4F526F525C283E4FFFE12516CD283E4EA
:104B8400FFFE12516C7D087F01124BBDBF010FAFB8
:104B9400257401A807088002C333D8FC42267F206D
:104BA4007E0012516CD283E4FFFE12516C0525E5A0
:084BB40025C3940840BFAF26A1
:014BBC0022D6
:104F0E007B117D087F01124691D2837F147E0012A1
:104F1E0051B6124FC17FCC124DB87F4E124DB87F95
:0E4F2E0060124DB87FE0124DB87F1F024DB8E3
:10457600E4F525F526854E25854F26EF7008900231
:10458600E3742DF08009BF01069002E3742BF0AEB0
:1045960025AF267C037DE8121CB97D01124F95904C
:1045A60002E4EFF0AE25AF267C037DE8121CB98C41
:1045B600258D26AE25AF267C007D64121CB97D01B3
:1045C600124F959002E5EFF0AE25AF267C007D6494
:1045D600121CB98C258D26AE25AF267C007D0A12CD
:1045E6001CB97D01124F959002E6EFF078A17C028E
:0F45F6007D017B017A0279E17E007F07021C07BD
:1038EB00E4F523F524124FC1EF6003023A057FCCB8
:1038FB00124DB8200907D2097F44024DB8C2097F87
:10390B00BE124DB8124B748F23124B748F24EFFEE3
:10391B007C00E42523F54FEC3EF54EE52454F8608E
:10392B001FE54FF4FFE54EF4FEEF7803CEC313CE45
:10393B0013D8F92401F54FE43EF54EE4F54D801410
:10394B00E54FAE4E7803CEC313CE13D8F9F54F8E99
:10395B004E754D01AE4EAF4F7C007D05121CA78EF0
:10396B004E8F4FE54D703ED3E54F9496E54E940048
:10397B004010E4F54C054BE54B940A4078E4F54BCD
:10398B008043C3E54F9482E54E94005011E4F54B10
:10399B00054CE54CC39405405CE4F54C8049E4F5DB
:1039AB004CF54B8050E54D6401704AD3E54F943292
:1039BB00E54E94004018E4F549054AE54AD39405D1
:1039CB004033E4F54A7D407F01124CCF8027C3E59D
:1039DB004F940AE54E94005017E4F54A0549E54922
:1039EB0094054011E4F5497D407F01124E2380057B
:0A39FB00E4F54AF549AF4D12457698
:013A0500229E
:10461100025144E493A3F8E493A34003F68001F22A
:1046210008DFF48029E493A3F85407240CC8C333AA
:10463100C4540F4420C8834004F456800146F6DF79
:10464100E4800B0102040810204080903A06E47EC9
:10465100019360BCA3FF543F30E509541FFEE4936E
:10466100A360010ECF54C025E060A840B8E493A335
:10467100FAE493A3F8E493A3C8C582C8CAC583CA60
:10468100F0A3C8C582C8CAC583CADFE9DEE780BE18
:013B140000B0
:101B3700E709F608DFFA8046E709F208DFFA803E90
:101B470088828C83E709F0A3DFFA8032E309F6087D
:101B5700DFFA8078E309F208DFFA807088828C83E5
:101B6700E309F0A3DFFA806489828A83E0A3F60899
:101B7700DFFA805889828A83E0A3F208DFFA804C73
:101B870080D280FA80C680D4806980F2803380104A
:101B970080A680EA809A80A880DA80E280CA8033B3
:101BA70089828A83ECFAE493A3C8C582C8CCC5832B
:101BB700CCF0A3C8C582C8CCC583CCDFE9DEE780FB
:101BC7000D89828A83E493A3F608DFF9ECFAA9F07A
:101BD700EDFB2289828A83ECFAE0A3C8C582C8CCD0
:101BE700C583CCF0A3C8C582C8CCC583CCDFEADEE9
:101BF700E880DB89828A83E493A3F208DFF980CC4B
:101C070088F0EF60010E4E60C388F0ED2402B40443
:101C17000050B9F582EB2402B4040050AF232345EA
:061C27008223901B87736D
:101C2D00BB010689828A83E0225002E722BBFE02B5
:091C3D00E32289828A83E49322E8
:101C4600BB010CE58229F582E5833AF583E0225053
:101C560006E92582F8E622BBFE06E92582F8E2229D
:0D1C6600E58229F582E5833AF583E49322B7
:101C7300BB010689828A83F0225002F722BBFE0150
:021C8300F3224A
:101C8500F8BB010DE58229F582E5833AF583E8F095
:101C9500225006E92582C8F622BBFE05E92582C841
:021CA500F22229
:101CA700EF8DF0A4A8F0CF8CF0A428CE8DF0A42E51
:021CB700FE220B
:101CB900BC000BBE0029EF8DF084FFADF022E4CC0F
:101CC900F875F008EF2FFFEE33FEEC33FCEE9DECD8
:101CD900984005FCEE9DFE0FD5F0E9E4CEFD22ED1E
:101CE900F8F5F0EE8420D21CFEADF075F008EF2F68
:101CF900FFED33FD4007985006D5F0F222C398FD59
:051D09000FD5F0EA22F5
:101D0E00BB010A89828A83E0F5F0A3E022500687A0
:101D1E00F009E71922BBFE07E3F5F009E319228962
:0B1D2E00828A83E493F5F07401932295
:101D3900BB0110E58229F582E5833AF583E0F5F0E8
:101D4900A3E0225009E92582F886F008E622BBFEC5
:101D59000AE92582F8E2F5F008E222E5832AF5830B
:081D6900E993F5F0A3E99322D0
:101D7100BB010DC58229C582C5833AC583021FFFF8
:101D81005011C58229F808E5F026F618F5F0E5822C
:101D910036F622BBFE11C58229F808E225F0F5F0DE
:101DA100F218E23582F222F8E58229F582E5832AEA
:0D1DB100F58374019325F0F5F0E4933822DA
:101DBE00BB010A89828A83F0E5F0A3F0225006F770
:0F1DCE0009A7F01922BBFE06F3E5F009F319226D
:101DDD00F8BB0111E58229F582E5833AF583E8F038
:101DED00E5F0A3F0225009E92582C8F608A6F022F5
:0D1DFD00BBFE09E92582C8F2E5F008F222DC
:101E0A00E88FF0A4CC8BF0A42CFCE98EF0A42CFC77
:101E1A008AF0EDA42CFCEA8EF0A4CDA8F08BF0A4F5
:101E2A002DCC3825F0FDE98FF0A42CCD35F0FCEB54
:101E3A008EF0A4FEA9F0EB8FF0A4CFC5F02ECD3919
:0F1E4A00FEE43CFCEAA42DCE35F0FDE43CFC2286
:101E590075F008758200EF2FFFEE33FECD33CDCC40
:101E690033CCC58233C5829BED9AEC99E5829840C3
:101E79000CF582EE9BFEED9AFDEC99FC0FD5F0D6A0
:101E8900E4CEFBE4CDFAE4CCF9A88222B800C1B9CA
:101E99000059BA002DEC8BF084CFCECDFCE5F0CB08
:101EA900F97818EF2FFFEE33FEED33FDEC33FCEB41
:101EB90033FB10D703994004EB99FB0FD8E5E4F9FC
:101EC900FA227818EF2FFFEE33FEED33FDEC33FCE9
:101ED900C933C910D7059BE99A4007EC9BFCE99ADD
:101EE900F90FD8E0E4C9FAE4CCFB2275F010EF2F22
:101EF900FFEE33FEED33FDCC33CCC833C810D70722
:101F09009BEC9AE899400AED9BFDEC9AFCE899F85C
:0E1F19000FD5F0DAE4CDFBE4CCFAE4C8F922EF
:0E1F2700C3E49FFFE49EFEE49DFDE49CFC22CB
:101F3500EB9FF5F0EA9E42F0E99D42F0EC6480C823
:061F450064809845F022C3
:101F4B00EB9FF5F0EA9E42F0E99D42F0E89C45F0EC
:011F5B002263
:101F5C00E8600FECC313FCED13FDEE13FEEF13FF63
:031F6C00D8F12287
:101F6F00E86010ECA2E713FCED13FDEE13FEEF1388
:041F7F00FFD8F02275
:101F8300E8600FEFC333FFEE33FEED33FDEC33FCBC
:031F9300D8F12260
:0C1F9600ECF0A3EDF0A3EEF0A3EFF022BE
:101FA200A8828583F0D083D082121FB9121FB91282
:101FB2001FB9121FB9E473E493A3C583C5F0C583A7
:101FC200C8C582C8F0A3C583C5F0C583C8C582C889
:011FD20022EC
:10471D008B3A8A3B893CAB3DAA3EA93F121C2D60CA
:10472D0063AB3AAA3BA93C121C2D605F853D4085C9
:10473D003E41853F428B438A448945AB40AA41A9FE
:10474D0042121C2DFF6023AB43AA44A945121C2D18
:10475D006F7017042542F542E43541F5417401258A
:10476D0045F545E43544F54480D1AB40AA41A94215
:10477D00121C2D7002800D7401253CF53CE4353B77
:10478D00F53B809DAB3AAA3BA93C227B007A007990
:02479D000022F8
:101FD300EF4E6012EF60010EEDBB010B89828A8325
:101FE300F0A3DFFCDEFA2289F05007F709DFFCA932
:0C1FF300F022BBFEFCF309DFFCA9F02289
:101FFF00C5F0F8A3E028F0C5F0F8E582158270026D
:06200F001583E038F02209
:00000001FF
